:0400000080312728FC
:100008007E1480318B1C16288B100B1220001C15B7
:100018002100151F142894314A24803115132528EE
:10002800151725282000911C1E2891101C110B164D
:100038009A0125280B1D2528B03095000B11943105
:1000480076247E100900803129286C308400233002
:1000580085008430FE00FF0194313E248031A030B9
:10006800F601F701F801F9018400003085003C3001
:10007800FE00FF0194313E2480312030840001309D
:1000880085001430FE00FF0194313E2480317E103B
:1000980020005528A3002208F50023080F39B03A9C
:1000A800EC2BA826803164302100CA00F930CB013E
:1000B800E4000000E40B5D28003264003C304F226D
:1000C8008031242780312100E601E7010330210037
:1000D800E5009730E400E40B6F28E50B6F2800007B
:1000E80064002100E60A0319E70A6708803AE40079
:1000F80095306402031D8228E0306602031C6A28DA
:100108002100D301CC01CD01DA01DB01D501640066
:1001180012290030A122803100307502C93003193C
:100128007402031CA028761CA92820003C30A201D8
:100138004E2380317610A9287618A928FF30200090
:10014800A2003C304E23803176142100D50A1E29A6
:100158000330A1228031E32780312030A90001300B
:10016800AA000830AB00D822803128082100D1002D
:10017800200027082100D000A9280230A1228031C0
:10018800E32780316C30A9002330AA004030AB004F
:10019800D82228082100CB00200027082100CA0007
:1001A8008E30CA07FE30CB3D4A082000A00021004F
:1001B8004B082000A1000230A201A301A701A6015B
:1001C800A5003A30A4009E3167268031220821001C
:1001D800CB00200021082100CA0003304B02E83080
:1001E80003194A0203180329E830E4000330E50044
:1001F8004A086402CA004B08653BCB000529CA01BE
:10020800CB0103304B02E83003194A02031C1029C2
:10021800E730CA000330CB00D5011E29210055085C
:10022800003A03198D28013A0319AC28033A031937
:10023800C1281029761D2329132480317611003016
:1002480021004D020B3003194C02031C2D29F61511
:100258002E29F61100305B02023003195A02031CE2
:100268003729F6143829F6106400BB29F61D4529EC
:100278005403031941293C304F229C31102480310A
:10028800C629F61C51295408023A03194D293C3055
:100298004F229A3159228031C6295408043A031949
:1002A80057293C304F229A31AF228031C629F61D9A
:1002B800F6186029D30AC6295408033A031966298F
:1002C8003C304F22953135258031C629F619512900
:1002D800F61C5E29512900305102283003195002BA
:1002E800031C5E295408063A03197D293C304F2225
:1002F80080315C278031C629003051020A30031949
:100308005002031C5E294B084A0403195E2954084D
:10031800073A031991293C304F229D311425803129
:10032800C629F6195E295408083A03199D293C3054
:100338004F2298312B208031C629F6185E2954089F
:10034800093A0319A9293C304F22993121218031DA
:10035800C629F6185E295408053A0319B5293C3010
:100368004F229831A6208031C629D401C629210000
:1003780053088400083004020318B929943104355D
:100388001A3E82002100E801E9016908803AE40088
:1003980080306402031DD2291830680203188B28A4
:1003A80027302100E500F530E400E40BD929E50BFE
:1003B800D9296400822280312100D200023A031D2B
:1003C800442A5308063A031D062A40278031210093
:1003D800EA01FA306A020318472A82228031210092
:1003E800D2003430E500F130E400E40BF929E50BE4
:1003F800F92900322100520B032A6D268031210091
:10040800EA0AED295308073A031D272A4E278031A7
:100418002100EB01FA306B020318472A822280314F
:100428002100D2003430E500F130E400E40B1A2A50
:10043800E50B1A2A00322100520B242A7B26803130
:100448002100EB0A0E2A322780312100EC01FA3014
:100458006C020318472A822280312100D2003430EE
:10046800E500F130E400E40B372AE50B372A0032C7
:100478002100520B412A892680312100EC0A2B2ABF
:10048800520B472AD30A083053020318D301E80A4B
:100498000319E90AC9292000A600A7012608F500C2
:1004A8002708B03EEC23803120002608A200023045
:1004B800162780310824803120002608A400A4359E
:1004C8002408FE39CB228031003A031D0800403051
:1004D800CB2280312000A5010030CB2280312000C2
:1004E8008030A50A2502031C702A0E2480312000C2
:1004F8000830A70A270203180800522A20008C187F
:10050800942AFB307702031C8C2A0230F80000344E
:100518000430F70A7702031C0034F801F80A0034A3
:10052800F701780B9A2A0130F80108007808023A96
:10053800031D00340230F80108002000A100C73074
:10054800A0000000A00BA52A00320000200021080E
:10055800A000A00DA00D21001D0820002006833951
:10056800200621009D00C7302000A0000000A00B3D
:10057800BA2A0032000021009D149D18C12A1C08C7
:10058800F500F4011B08F4070318F50A0800F40045
:10059800740824009100951BFF341418D12A2126D1
:1005A8008031161BFE3400342B08B927803101082E
:1005B800B5002B0835020318B5013508B927803175
:1005C8002708C03F2808C13F3508013EAC0000306D
:1005D80003180130AD00D727803186002F082A3D47
:1005E80087002C08C03F2D08C13F2B08FF3EAC00F8
:1005F800FF3003180030AD00D7278031B0002F0836
:100608002A3DB10030088600310887004231403F5A
:10061800B200413FB3002D083302031D152B2C08EF
:10062800320203182D2B2B08AC00AD01AC35AD0DF3
:100638002C082907AE002D082A3DAF002E08860099
:100648002F08870001304231810741310318810AA0
:100658000800A701A801B4012B0834020318412B94
:100668003408B9278031403FAE00413FAF002E0823
:10067800A7072F08A83DB40A302B2B08A000A1011A
:100688002808A3002708A2008E272108A800200810
:10069800A7000800A3002308F5008130EC2380316F
:1006A80020002308F5002208EC2BA4002408F500FC
:1006B800AE30EC23803120002408F500D530EC233F
:1006C800803120002408F5008030EC2380312000A0
:1006D8002408F500A830EC23803120002408F50018
:1006E8002308EC23803120002408F500D330EC23C4
:1006F8008031E9278031EC238031E9278031EC23F0
:100708008031F1278031EC238031ED278031EC23D3
:10071800803120002408F500B030EC23803120001F
:100728002408F5008D30EC23803120002408F500E2
:100738002030EC238031E9278031EC238031200000
:100748002408F500A130EC23803120002408F500AE
:10075800C830EC23803120002408F500DA30EC237F
:10076800803120002408F5001230EC238031F12775
:100778008031EC23803120002408F500CF30EC23B1
:10078800803120002408F500D930EC238031200086
:100798002408F5001F30EC23803120002408F500E0
:1007A800DB30EC238031ED278031EC2380312000D1
:1007B8002408F500A430EC23803120002408F5003B
:1007C800A630EC23803120002408F500AF30EC2B54
:1007D800A100082480310A302000A000A00BF22BD1
:1007E800000075082000A000A0352008FE39CB22A3
:1007F8008031003A031D072C0030CB2280312000C5
:100808002108CB2280310E2C212680311614161C8B
:1008180008000B2C24001615161D0800102C3B0888
:100828002000A90021003A082000A800210039086A
:100838002000A700210038082000A6004630AA00A2
:100848000426803121003F082000A90021003E082D
:100858002000A80021003D082000A70021003C0836
:100868002000A6005A30AA00042680312100590829
:100878002000A900210058082000A80021005708DE
:100888002000A700210056082000A6005030AA002A
:1008980004268031210033082000A90021003208F5
:1008A8002000A800210031082000A70021003008FE
:1008B8002000A6003230AA00042680312100370823
:1008C8002000A900210036082000A80021003508D2
:1008D8002000A700210034082000A6003C30AA0010
:1008E80004268031210023082000A90021002208C5
:1008F8002000A800210021082000A70021002008CE
:100908002000A6000A30AA0004268031210027080A
:100918002000A900210026082000A80021002508A1
:100928002000A700210024082000A6001430AA00F7
:100938000426803121002B082000A90021002A0864
:100948002000A800210029082000A700210028086D
:100958002000A6001E30AA000426803121002F089E
:100968002000A90021002E082000A80021002D0841
:100978002000A70021002C082000A6002830AA008B
:10098800042E6400FE300F2680313A3A031D6E2D86
:100998004630A82580312E082100BB0020002D08F4
:1009A8002100BA0020002C082100B90020002B08E3
:1009B8002100B8005A30A82580312E082100BF0038
:1009C80020002D082100BE0020002C082100BD00B9
:1009D80020002B082100BC005030A82580312E08AB
:1009E8002100D90020002D082100D80020002C0863
:1009F8002100D70020002B082100D6003230A8257E
:100A080080312E082100B30020002D082100B200FB
:100A180020002C082100B10020002B082100B00084
:100A28003C30A82580312E082100B70020002D0871
:100A38002100B60020002C082100B50020002B085A
:100A48002100B4000A30A82580312E082100A30017
:100A580020002D082100A20020002C082100A10060
:100A680020002B082100A0001430A82580312E0872
:100A78002100A70020002D082100A60020002C0836
:100A88002100A50020002B082100A4001E30A82565
:100A980080312E082100AB0020002D082100AA007B
:100AA80020002C082100A90020002B082100A80004
:100AB8002830A8252E082100AF0020002D0821008D
:100AC800AE0020002C082100AD0020002B082100DA
:100AD800AC0008003A30F400FE30292680312000AE
:100AE8004630B32780310426803120005A30B3279E
:100AF80080310426803120005030B327803104260D
:100B0800803120003230B327803104268031200024
:100B18003C30B32780310426803120000A30B327C7
:100B280080310426803120001430B3278031042618
:100B3800803120001E30B327803104268031200008
:100B48002830B3278031042E2000B900FF30B300CD
:100B5800B400B500B6003908043E0F268031353A96
:100B6800031DCC2D04302000B700CE278031370775
:100B7800FF3E0F2680312000B30701300318B40769
:100B88000318B5070318B607B7030319F32DB92DD2
:100B980020003908093E0F268031353A031DEA2D19
:100BA80004302000B800CE2780313807043E0F26D5
:100BB80080312000B30701300318B4070318B507C4
:100BC8000318B607B8030319F32DD72DFF302000FB
:100BD800A600A700A800A9003908AA00042620003A
:100BE8003309AF003409B0003509B1003609B20045
:100BF800AE003108AD003008AC002F08AB0008008B
:100C0800C4278031A400422680312000C4278031C7
:100C1800053EA400422EF400640023009518102E0F
:100C28007408910092013F309505151403101518AA
:100C380003140030093D13080800240016081F3962
:100C4800031D212E141D0800212EF50023009518E0
:100C58002A2E750891009201740893003F3095057B
:100C680003108B1B03148B13151555309600AA30EF
:100C780096009514151103188B170800FF30A0066D
:100C8800A106A206A3068B13F4002408043E292615
:100C980080318B172000A5018B132008F40024084D
:100CA8002507292680318B1720002108A00022085B
:100CB800A1002308A2000430A301A50A2502031CF1
:100CC800502E8B133530F4002408043E29268B1748
:100CD8000800640020000A30B327803104268031E0
:100CE80020001430B3278031042601000800640076
:100CF80020001E30B32780310426803120002830A0
:100D0800B327803104260100080064002000463023
:100D1800B32780310426803120005A30B327803130
:100D28000426803120005030B327803104268031DA
:100D380034302000AC00F130AB00AB0BA12EAC0B73
:100D4800A12E00320100080022008C018D011F3005
:100D580021008C007F308D0023008D010D308C0028
:100D680024008D018C012100951722009D019E0110
:100D7800703021009900220096011630210097005A
:100D880021001A1BC92E6400C42E0B2780312100B4
:100D98001508C03917389500B03020009500990122
:100DA80097019601111083309800990103309B0038
:100DB8009A01911021009114073020009C00F03016
:100DC80021009E009B019C0101309D000B118B1698
:100DD800C5248031640003302000BB009730BA007E
:100DE800BA0BF42EBB0BF42E00007F302000A200BB
:100DF8003E30A3003C3059238031F0302000A2005F
:100E08003C304E2376148B158B170B170800803057
:100E1800240094000830950096014F3092009516F2
:100E280094010800A3002208F50023080F39EC23D9
:100E3800803120002208F500230E0F391038EC2BE2
:100E480021000330D4012000C600CD30C700933004
:100E5800C8003C30C90014309D31A42D0A30D4009C
:100E68003C304F22803104302000C600A030C7003B
:100E78009330DF279D31A42D0B30D4003C304F2216
:100E8800803104302000C6008830C7009330DF2747
:100E98009D31A42D0C30D4003C304F2280310430D9
:100EA8002000C6009430C7009330DF279D31A42D61
:100EB80006302100D4002000D730C601C700933087
:100EC800C8003C30C90002309D31A4258031023071
:100ED800E200210051082000E9002100500820000C
:100EE800E800E936E80CE936E80C6808E300690828
:100EF800E4003C30E50010309531AA25033020008D
:100F0800C6001830C7009430C8003C30C9006430AF
:100F18009D31A42DA501A601210820040319AE2F97
:100F2800A401A40AA11B9B2FA035A10D952FA535BF
:100F3800A60D21082302031DA32F20082202031C4B
:100F4800AA2F2008A2022108A33B2514A136A00C31
:100F5800A40B9B2F2608A1002508A0000800A601C5
:100F6800A701A801A901AA000800AC00AD01AC3591
:100F7800AD0D2C08290786002D082A3D870008009A
:100F88002908A3002808A2002708A1002608A00015
:100F98002A0808003508B6003408B5003308B4003C
:100FA800B301390808002B08AE00AF01AE35AF0D0C
:100FB8002E0829070800C8003C30C9000A34750803
:100FC8002000A8007408A700080020002408F500E5
:100FD800003420002408F500403420002408F500DF
:020FE8001034C3
:10100000003400340034003400340034FE34FE3444
:10101000FE34003400340034003400340034003432
:10102000003400343B343B343B340034003400346F
:101030000034003480348034803480348034803410
:10104000803480348034003400340034013401347E
:1010500001340134013401340134013401340034E9
:10106000003400340034FC34FC34FC34FC34FC34F4
:10107000FC340034003400340034003400343F3495
:101080003F343F343F343F343F3400340034003485
:1010900000340034803480348034803480348034B0
:1010A000803480348034003400340034013401341E
:1010B0000134013401340134013401340134003489
:1010C00000347C34FE348234FE347C34C03430341A
:1010D0008C348234803400340034003400342034C2
:1010E0001834063401341F343F3420343F341F3465
:1010F000003400340034E034F034F0343034F03470
:10110000E034003400340034003400341C343E3405
:101110003F34373436343F343E343C343C3400348E
:10112000003400340034003400340E340E34003403
:10113000003400340034003400340034003400340F
:1011400000340034003400340034003400340034FF
:1011500000340034003400340034FC34FE34FE34F7
:1011600006340034003400340034003400340034D9
:1011700000341F343F343F34303400340034003402
:1011800000340034003400340634FE34FE34FC34C1
:1011900000340034003400340034003400340034AF
:1011A00030343F343F341F340034003400340034D2
:1011B0000034003400340034003404341C340E3461
:1011C0001C3404340034003400340034003400345F
:1011D000003400340034003400340034003400346F
:1011E000003400340034803480348034F034F034FF
:1011F00080348034803400340034003400340134CE
:10120000013401340F340F3401340134013400341B
:10121000003400340034003400340034003400342E
:10122000003400340034003400340034003400341E
:1012300000340034B03470340034003400340034EE
:1012400000340034003400340034003400340034FE
:1012500000340034003400340034003400340034EE
:1012600000340034003400340034003400340034DE
:1012700000340034FE34FC34F834F034E034C0344C
:10128000803400340034003400340034FF347F34C0
:101290003F341F340F340734033401340034003436
:1012A00000340034003400340034C034F8343E34A8
:1012B0000634003400340034003400340034303458
:1012C0003E341F3401340034003400340034003420
:1012D0000034003400340034FC34FE34FE34063470
:1012E000FE34FE34FC340034003400340034003466
:1012F0001F343F343F3430343F343F341F340034E4
:10130000003400340034003408340834FC34FC3435
:10131000FE3400340034003400340034003400342F
:10132000003400343F343F343F3400340034003460
:1013300000340034003400343C343E348634FE340F
:10134000FE347C3400340034003400340034003483
:1013500038343E343F3437343134303400340034A0
:1013600000340034003400341C341E34C634FE34DF
:10137000FE34BC3400340034003400340034003413
:101380001E343E3430343F343F341F340034003494
:101390000034003400340034E034FC341E34FE34B5
:1013A000FE34FE34003400340034003400340F3492
:1013B0000F340E340E343F343F343F340E34003497
:1013C0000034003400340034FE34FE34FE3466341D
:1013D000E634E634C63400340034003400340034DB
:1013E0001E343E343E3430343F343F341F340034F6
:1013F0000034003400340034FC34FE34FE346634EF
:10140000EE34EE34CC340034003400340034003494
:101410001F343F343F3430343F343F341F340034C2
:101420000034003400340034063406348634FE348C
:10143000FE343E34003400340034003400340034D0
:10144000003430343F343F34073400340034003447
:101450000034003400340034BC34FE34FE34C6346E
:10146000FE34FE34BC340034003400340034003424
:101470001F343F343F3430343F343F341F34003462
:101480000034003400340034FC34FE34FE340634BE
:10149000FE34FE34FC3400340034003400340034B4
:1014A00019343B343B3433343F343F341F3400343D
:1014B000003400340034003400340034C034C0340C
:1014C000003400340034003400340034003400347C
:1014D00000340034393439340034003400340034FA
:1014E000003400340034003400340034C034C034DC
:1014F000003400340034003400340034003400344C
:1015000000340034B1347134003400340034003419
:1015100000340034003400348034C034C034E0344B
:10152000603460343034003400340034003400342B
:1015300000340134013403340334033406340034FA
:10154000003400340034003460346034603460347B
:1015500060346034603400340034003400340034CB
:1015600003340334033403340334033403340034C6
:101570000034003400340034303460346034E034FB
:10158000C034C034803400340034003400340034BB
:10159000063403340334033401340134003400349A
:1015A0000034003400349C349E349E340634FE34BF
:1015B000FC34F834003400340034003400343B345C
:1015C0003B343B34033403340334013400340034FB
:1015D0000034E0341834CC34E4343234123412346D
:1015E000E234F234743408340034073418343734B5
:1015F0002F34483448344C344F346F342834363424
:101600000034003400340034F034FE340E34FE3440
:10161000F0340034003400340034003400343E34FC
:101620003F340D340C340D343F343E340034003438
:10163000003400340034FE34FE34FE34C634FE344C
:10164000BE34BC34003400340034003400343F3441
:101650003F343F3430343F343F341F34003400349F
:10166000003400340034FC34FE34FE3406343E349E
:101670003E343C34003400340034003400341F3431
:101680003F343F3430343F341F340F34003400349F
:10169000003400340034FE34FE34FE340634FE34AC
:1016A000FE34FC34003400340034003400343F3461
:1016B0003F343F3430343F343F341F34003400343F
:1016C00000340034003400340034FE34FE34FE3480
:1016D000C634C634003400340034003400340034DE
:1016E00000343F343F343F3430343034303400340D
:1016F00000340034003400340034FE34FE34FE3450
:10170000C634C634003400340034003400340034AD
:1017100000343F343F343F3400340034003400346C
:10172000003400340034FC34FE34FE340634BE345D
:10173000BC34B834003400340034003400341F3476
:101740003F343F3430341F343F343F3400340034AE
:10175000003400340034FE34FE34FE34C034FE3431
:10176000FE34FE34003400340034003400343F349E
:101770003F343F3400343F343F343F34003400348E
:10178000003400340034003400340034FE34FE34BD
:10179000FE340034003400340034003400340034AB
:1017A000003400343F343F343F34003400340034DC
:1017B00000340034003400340034FE34FE34FE348F
:1017C0000034003400340034003400340034003479
:1017D00030343F343F341F3400340034003400349C
:1017E0000034003400340034FE34FE34FE34E0347F
:1017F000F834FE341E34063400340034003400342F
:101800003F343F343F3403340F343F343C343034BE
:1018100000340034003400340034FE34FE34FE342E
:101820000034003400340034003400340034003418
:1018300000343F343F343F343034303400340034EB
:10184000003400340034FE34FE34FE347E34E034A0
:101850001E34FE34FE34FE340034003400343F3491
:101860003F343F3400343F3400343F343F343F345E
:101870000034003400340034FE34FE34FE34F034DE
:101880008034FE34FE34003400340034003400343C
:101890003F343F34003407343F343F343F34003466
:1018A000003400340034F834FE34FE340634FE34A0
:1018B000FE34F834003400340034003400340F3483
:1018C0003F343F3430343F343F341F34003400342D
:1018D0000034003400340034FE34FE34FE348634E8
:1018E000FE34FC340034003400340034003400345E
:1018F0003F343F343F340134013400340034003489
:10190000003400340034F834FE34FE340634FE343F
:10191000FC34F834003400340034003400341F3414
:101920003F343F3470347F345F345F3400340034EC
:101930000034003400340034FE34FE34FE34C63447
:10194000FE34FE347C34003400340034003400347F
:101950003F343F343F3400343F343F343F3400346D
:1019600000340034003400347C34FE34FE34C63499
:101970009E341C340034003400340034003400340D
:101980001E343E3430343F343F341F34003400348E
:10199000003400340034003406340634FE34FE349F
:1019A000FE3406340634003400340034003400348D
:1019B000003400343F343F343F34003400340034CA
:1019C000003400340034FE34FE34FE340034FE347F
:1019D000FE34FE34003400340034003400341F344C
:1019E0001F343F3430343F343F341F34003400342C
:1019F0000034003400340E34FE34FE34F03400344D
:101A0000F034FE34FE340E3400340034003400343C
:101A100003343F343F3438343F343F3403340034EC
:101A20000E34FE34FE34E0340034FE343E34FE34F2
:101A30000034F034FE34FE34003403343F343F3499
:101A400038340F3400340F3438343F343F340334E7
:101A500000340034003400340E34FE34FE34C0341C
:101A6000FE34FE340E3400340034003400340034CC
:101A70003C343F343F3400343F343F343C34003452
:101A800000340034003406347E34FE348034FE34B6
:101A90007E34063400340034003400340034003422
:101AA00000343F343F343F340034003400340034D9
:101AB000003400340034003406340634C634FE34B6
:101AC0007E340E34003400340034003400340034EA
:101AD00038343E343F343134303430340034003420
:101AE000003400340034003400340034FE34FE345A
:101AF000FE34063400340034003400340034003442
:101B0000003400343F343F343F3430340034003448
:101B1000003400340034003406343E34F834C03429
:101B20000034003400340034003400340034003415
:101B30000034003401341F343E3430340034003477
:101B4000003400340034003400340634FE34FE34F3
:101B5000FE340034003400340034003400340034E7
:101B6000003430343F343F343F34003400340034E8
:101B700000340034003400348034F0347C341E34BB
:101B80007C34F034803400340034003400340034C9
:101B900000340034003400340034003400340034A5
:101BA0000034003400340034003400340034003495
:101BB0000034003400340034003400348034803485
:101BC00080348034803480348034803480340034F5
:101BD000003400340034003401340334033402345C
:101BE0000034003400340034003400340034003455
:101BF0000034003400340034003400340034003445
:101C0000003400340034E034F034F0343034F03454
:101C1000F034E034003400340034003400341E3436
:101C20003E343F3413343F343F343F3400340034C7
:101C3000003400340034FE34FE34FE342034F034FA
:101C4000F034E034003400340034003400343F34E5
:101C50003F343F3410343F343F341F3400340034B9
:101C6000003400340034E034F034F0343034F034F4
:101C7000F034E034003400340034003400341F34D5
:101C80003F343F3430343E341E340E34003400349C
:101C9000003400340034E034F034F0342034FE34C6
:101CA000FE34FE34003400340034003400341F3479
:101CB0003F343F3410343F343F343F340034003439
:101CC000003400340034E034F034F034B034F03414
:101CD000F034E034003400340034003400341F3475
:101CE0003F343F3431343D343D341D34003400340E
:101CF00000340034003400340034FC34FE34F63454
:101D000036340034003400340034003400340034FD
:101D100000343F343F343F34003400340034003466
:101D2000003400340034F034F034F0342034F03433
:101D3000F034F034003400340034003400343334F0
:101D40007734773462347F347F343F340034003466
:101D5000003400340034FE34FE34FE342034F034D9
:101D6000F034E034003400340034003400343F34C4
:101D70003F343F3400343F343F343F340034003488
:101D800000340034003400340034F634F634F634D1
:101D900000340034003400340034003400340034A3
:101DA00000343F343F343F340034003400340034D6
:101DB00000340034003400340034F634F634F634A1
:101DC0000034003400340034003400340034003473
:101DD00060347F347F343F340034003400340034C6
:101DE000003400340034FE34FE34FE348034F034E9
:101DF000F0341034003400340034003400343F3404
:101E00003F343F3401343F343F3430340034003405
:101E100000340034003400340034FE34FE34FE3428
:101E20000034003400340034003400340034003412
:101E300000343F343F343F34003400340034003445
:101E40000034F034F034F0342034F034F034E03442
:101E50002034F034F034E03400343F343F343F3445
:101E600000343F343F343F3400343F343F343F3458
:101E7000003400340034F034F034F0342034F034E2
:101E8000F034E034003400340034003400343F34A3
:101E90003F343F3400343F343F343F340034003467
:101EA000003400340034E034F034F0343034F034B2
:101EB000F034E034003400340034003400341F3493
:101EC0003F343F3430343F343F341F340034003427
:101ED000003400340034F034F034F0342034F03482
:101EE000F034E034003400340034003400347F3403
:101EF0007F347F3410343F343F341F340034003497
:101F0000003400340034E034F034F0342034F03461
:101F1000F034F034003400340034003400341F3422
:101F20003F343F3410347F347F347F340034003406
:101F30000034003400340034F034F034F0346034D1
:101F40007034003400340034003400340034003481
:101F50003F343F343F340034003400340034003424
:101F6000003400340034E034F034F0343034703471
:101F700070346034003400340034003400341834D9
:101F800039343B3433343F343E341E34003400346F
:101F90000034003400340034FC34FC34FC3430347D
:101FA0000034003400340034003400340034003491
:101FB0003F343F343F343034003400340034003494
:101FC000003400340034F034F034F0340034F034B1
:101FD000F034F034003400340034003400341F3462
:101FE0003F343F3410343F343F343F340034003406
:101FF0000034003400347034F034F0340034F03401
:10200000F0347034003400340034003400340034D0
:102010000F343F3430343F340F3400340034003454
:102020000034F034F034F0340034F034F034F03470
:102030000034F034F034F034003400343F343F34B2
:1020400038343F3400343F3438343F343F34003484
:102050000034003400341034F034F0340034F03400
:10206000F0341034003400340034003400342034B0
:102070003C343F3403343F343C34203400340034A7
:10208000003400343034F034F03480340034F03430
:10209000F03430340034003400340034003463341D
:1020A0007F347F3478347F341F340034003400347C
:1020B00000340034003400343034F034F034F03480
:1020C0000034003400340034003400340034003470
:1020D0003E343F343F343134003400340034003473
:1020E0000034C034F034F834F834FC34FC343C347C
:1020F0003C34FC34FC34F834F834F034C03400346C
:10210000003400340034FF34FF34FF34FF34FF3434
:10211000FF3400340034FF34FF34FF34FF34FF3425
:10212000FF3400340034003400347F34FF34FF3493
:10213000FF34FF34FF3480348034FF34FF34FF3405
:10214000FF34FF347F340034003400340034003472
:1021500001340334033407340734073407340734B5
:1021600007340334033401340034003400340034C1
:10217000003400340034C034C034E034E034F0348F
:10218000F034F834FC34FC34FC34003400340034D3
:10219000003400340034003400340134013401349C
:1021A0000334FF34FF34FF34FF34FF34FF34003492
:1021B000003400340034003400340034003400347F
:1021C000003400340034FF34FF34FF34FF34FF3474
:1021D000FF34003400340034003400340034003460
:1021E000003400340034003400340734073407343A
:1021F000073407340734003400340034003400342A
:1022000000340034C034F034F834FC34FC343C3452
:102210003C34FC34FC34F834F834F034C03400344A
:1022200000340034003400340734073407340734F2
:102230000734E034F834FF34FF34FF34FF343F34E4
:102240000F34003400340034003400340034C0341F
:10225000F034FC34FF34FF34FF34BF348F34873420
:1022600081348034003400340034003400340034CD
:102270000734073407340734073407340734073486
:102280000734073407340734003400340034003492
:102290000034F034F834F834FC34FC34FC343C348E
:1022A0003C34FC34FC34FC34F834F034E034003496
:1022B0000034003400340134013401340134013479
:1022C00079347834F834FF34FF34FF34EF34EF34AA
:1022D000C7340034003400340034FE34FE34FE349D
:1022E000FE34FE34FE3480348034FF34FF34FF3457
:1022F000FF34FF347F3400340034003400340034C1
:102300000134033403340734073407340734073403
:10231000073403340334013400340034003400340F
:102320000034003400348034F034FC34FC34FC34A9
:10233000FC34FC34FC34FC34FC3400340034003411
:10234000003400340034E034FC34FF347F3407348C
:102350000034FF34FF34FF34FF34FF34FF340034E3
:1023600000340034003400347F347F347F347F34D1
:102370007E347E347E34FF34FF34FF34FF34FF3448
:10238000FF347E347E3400340034003400340034B2
:102390000034003400340034003407340734073488
:1023A0000734073407340034003400340034003478
:1023B0000034FC34FC34FC34FC34FC34FC343C3459
:1023C0003C343C343C343C343C343C343C340034C9
:1023D0000034003400347F347F347F347F347F34E2
:1023E0007F341C341E34FE34FE34FE34FE34FC34A0
:1023F000F03400340034003400347C34FC34FC34D9
:10240000FC34FC34FC3480348034FF34FF34FF343B
:10241000FF34FF34FF34003400340034003400341F
:1024200001340334033407340734073407340734E2
:1024300007340334033401340034003400340034EE
:102440000034C034F034F834F834FC34FC343C3418
:102450003C34FC34FC34F834F834F034C034003408
:10246000003400340034FF34FF34FF34FF34FF34D1
:10247000FF3470347834F934F934F934F934F13400
:10248000E13400340034003400347F34FF34FF344E
:10249000FF34FF34FF3480348034FF34FF34FF34A2
:1024A000FF34FF34FF34003400340034003400348F
:1024B0000134033403340734073407340734073452
:1024C000073403340334013400340034003400345E
:1024D000003400343C343C343C343C343C343C34F4
:1024E000FC34FC34FC34FC34FC34FC340034003464
:1024F000003400340034003400340034003400343C
:102500008034F834FF34FF34FF34FF343F34013477
:10251000003400340034003400340034003400341B
:102520000034F034FF34FF34FF34FF34FF34073419
:1025300000340034003400340034003400340034FB
:1025400000340034063407340734073407340734C2
:1025500000340034003400340034003400340034DB
:102560000034E034F034F834F834FC34FC343C34D7
:102570003C34FC34FC34FC34F834F034E0340034C3
:102580000034003400348734EF34FF34FF34FF3438
:10259000FF3478347834FF34FF34FF34EF34EF34D1
:1025A000C73400340034003400347F34FF34FF3447
:1025B000FF34FF34FF3480348034FF34FF34FF3481
:1025C000FF34FF34FF34003400340034003400346E
:1025D0000134033403340734073407340734073431
:1025E000073403340334013400340034003400343D
:1025F0000034E034F034F834F834FC34FC343C3447
:102600003C34FC34FC34F834F834F034C034003456
:10261000003400340034FF34FF34FF34FF34FF341F
:10262000FF34C034C034FF34FF34FF34FF34FF3490
:10263000FF3400340034003400347034F134F334A7
:10264000F334F334F33483348134FF34FF34FF3410
:10265000FF34FF347F34003400340034003400345D
:1026600001340334033407340734073407340734A0
:1026700007340334033401340034003400340034AC
:1026800000340034003400340034003400340034AA
:10269000003400340034003400340034003400349A
:1026A000003400340034003400340034003480340A
:1026B00080348034803480348034803480340034FA
:1026C000003400340034003400340034003400346A
:1026D0000034073407340734073407340734073429
:1026E0000734003400340034003400340034003443
:1026F000003400340034003400340034003400343A
:102700000034003400340034003400340034003429
:1027100052346534733465347434203454344F3453
:10272000203431343F3400345234653473346534EA
:102730007434203454344F34203432343F34003431
:1027400052346534733465347434203474347234E0
:10275000693470343F340034533465347434203475
:102760003834303420346C34743472343F340034B0
:102770004634753465346C34203463346F346E34CD
:102780007334743400344634753465346C34203416
:10279000743461346E346B3400344D3469346E34C7
:1027A00069342034743472346934703400344234FF
:1027B000613474347434653472347934003453348D
:1027C00070346534653464340034543469346D34A1
:1027D00065340034743469346D34653400344634FF
:1027E000753465346C340034543472346934703464
:1027F0000034313430343034003454344F343134D4
:10280000003454344F34323400346C342F34683450
:1028100000344F3464346F3400344C3474347234C4
:1028200000346C347434723400346B346D340034DE
:102830005634003481313A2981315B2981316A294A
:1028400081316F29813180298131AD2981319529EB
:042850008131A12908
:10287C006400013080010131FE020030FF3B7F0813
:10288C007E04031900343F2CCE0A0319CF0AC60A62
:10289C000319C70A01304702993003194602031C79
:1028AC000800B80A0319B90A0319BA0A0319BB0AB2
:1028BC00B00A0319B10A0319B20A0319B30AA00A20
:1028CC000319A10A0319A20A0319A30AA80A0319D6
:1028DC00A90A0319AA0A0319AB0AC601C701080001
:1028EC002100C40A0319C50A0130450287300319B7
:1028FC004402031CB42C1E30C401C501F90A790230
:10290C00031CB42C00305B02023003195A0203186A
:10291C00962C00304D02023003194C02031CB22CD1
:10292C00BC0A0319BD0A0319BE0A0319BF0AB40A6B
:10293C000319B50A0319B60A0319B70AA40A03192D
:10294C00A50A0319A60A0319A70AAC0A0319AD0AAA
:10295C000319AE0A0319AF0AF9017615C00A031957
:10296C00C10A02304102333003194002031CDD2C32
:10297C0020001708F1001608F0007108F300700829
:10298C00F20021004808F2024908F33B7108C90023
:10299C007008C8007308DB007208DA007208D607EA
:1029AC007308D73D0030D83DD93DC001C101C20AE2
:1029BC000319C30A02304302BA3003194202031C42
:1029CC000800C201C3014F08CD004E08CC00CE0157
:1029DC00CF010800A7002508F2279431A3269431D3
:1029EC00EA27943114259431FC2794311425943121
:1029FC00FC2794311425943120002508013EF22740
:102A0C009431A3269431EA27943114259431EE277E
:102A1C00943114259431EE279431142DA100843176
:102A2C00082494310A302000A000A00B1B2D0000BC
:102A3C0075082000A000A0352008FE398231CB2279
:102A4C009431003A031D332D40308231CB22943126
:102A5C00200021088231CB22943184310E2C03309A
:102A6C002100D40005302000C600F430C70093309C
:102A7C009F31992794319D31A4259431DF30C601C3
:102A8C00C60AC70093309F31992794319D31A425F4
:102A9C009431E20121004D082000EB0021004C088C
:102AAC002000EA00EB36EA0C6A08E3006B08E4004D
:102ABC003C30E501E601E7000330E8004030993195
:102ACC00DB219431003021003B02031D772D0030B7
:102ADC003A02031D772D27303902031D772D103054
:102AEC003802031C9B2D0A3020009E31F6269431AF
:102AFC009F279C31D52494312F08EF002E08EE002F
:102B0C002D08ED002C08EC000430E2006F08E60004
:102B1C006E08E5006D08E4006C08E3003C30E7004B
:102B2C000430E80030309931DB2904302000E20019
:102B3C00210039082000E400210038082000E300BF
:102B4C003C30E5003030AA2DE7006408803AE600FE
:102B5C0083306602031DB42DE8306302031CD42DB0
:102B6C0020006408803AE600A7306602031DC02DE1
:102B7C00103063020318D42D20006208C100E83025
:102B8C00A0000330A1006408A3006308A200E9269A
:102B9C0094312008F72794311B2694312000E41F30
:102BAC00E42D6208C1000B30F72794311B269431B9
:102BBC002000E309E409E30A0319E40A6208C100EE
:102BCC000A30A8006430D1279431E9269F31CF27F1
:102BDC00943129279431D9279431123E1B269431F4
:102BEC00DF279431D1279431E9269F31CF279431B7
:102BFC0029279431D9279431243E1B269431200067
:102C0C006208A5006508A6006708343E6227943167
:102C1C00DF279431A9016408AB006308AA002927B7
:102C2C009431D92794313D3E1B2EDE001230DF004B
:102C3C000B30E0014202031C252E0A30C200410871
:102C4C00E5279431A32694312000E1015F0861024D
:102C5C0003183A2E4A30C4279431BB279E311C26C8
:102C6C0094318A2794312C2E4308A0005F08A100D0
:102C7C004A30BC26943120004108013EE5279431AE
:102C8C00A326943120006008123EE1005F08123E3A
:102C9C00AF27943103185E2E4A302000C42794319C
:102CAC00EE3EBB279E311C2694318A2794314C2E44
:102CBC00CB279431BC26943120004108023EE527F5
:102CCC009431A326943120006008243EE1005F0873
:102CDC00243EAF27943103187F2E4A302000C4279E
:102CEC009431DC3EBB279E311C2694318A279431CB
:102CFC006D2ECB279431BC26943120004108033E25
:102D0C00E5279431A326943120006008363EE1007B
:102D1C005F08363EAF2794310318A02E4A302000AE
:102D2C00C4279431CA3EBB279E311C2694318A2776
:102D3C0094318E2ECB279431BC2EA4002308F500A1
:102D4C0024080F398331EC23943120002308F5003B
:102D5C00240E0F3910388331EC23943120002308D2
:102D6C00F50022080F39B03A8331EC2BA3008431E3
:102D7C00082494310A30F500F50BC22E0000200017
:102D8C002008F500F5357508FE398231CB229431D7
:102D9C00003A0319D32E84310E2C40308231CB22D1
:102DAC0094312000A201210822020318D12E2208FE
:102DBC002307F5008600870101088231CB2294316C
:102DCC002000A20AD92EA501A11FF32EA009A1094A
:102DDC00A00A0319A10AA501A50AA31FFC2EA2098A
:102DEC00A309A20A0319A30A0130A506A601A7018B
:102DFC002108200403191C2FA401A40AA11B092FCC
:102E0C00A035A10D032FA635A70D21082302031D04
:102E1C00112F20082202031C182F2008A2022108BF
:102E2C00A33B2614A136A00CA40B092F25080319CB
:102E3C00242FA609A709A60A0319A70A2708A10087
:102E4C002608A0000800F501AB1F332FAA09AB0917
:102E5C00AA0A0319AB0AF501F50AA91F3A2FA8090A
:102E6C00A909A80A0319A90A290828040319552F26
:102E7C00F401F40AA91B452FA835A90D3F2F2908E9
:102E8C002B02031D4B2F28082A02031C512F280844
:102E9C00AA022908AB3BA936A80CF40B452F7508E0
:102EAC0003195D2FAA09AB09AA0A0319AB0A2B084F
:102EBC00A9002A08A8000800AD002508033EA200BE
:102ECC002608A3002D08A32694312000AE012E085D
:102EDC00273E8600023087018101AE0A2E02031CB8
:102EEC006D2F0230AE002E08273E86001F30870162
:102EFC0081000730AE0A2E02031C792F2608A00091
:102F0C000630A1002730BC2E7030C6009030C700B0
:102F1C0020084607C8002108473DC900610848073A
:102F2C00840049080318490A850000088100E10A59
:102F3C0008003B082000B30021003A082000B20032
:102F4C00210039082000B100210038082000B00011
:102F5C000800C400003003180130C500803A803CE2
:102F6C00031D08004408610208008600870142081E
:102F7C00A0004830A101A200A3010800C400600811
:102F8C00C40261084407C500080020004308A000E3
:102F9C005F08A1004A34A901A000A1016408A300A4
:102FAC006308A20008002808C2006508C30067086F
:102FBC00080020006208C1000A30A8000800A20026
:102FCC004308A3005E08080020002608F500003422
:102FDC0020002608F5000C34A2002608A3002708C0
:102FEC000800C2006508C300670808002000260816
:042FFC00F500303478
:1030560008302100D4002000FD30C601C70093309F
:1030660099279831A4250230C6001530C700943040
:103076008731DF279831A42598310630C600EA301B
:10308600C700933099279831A42598310A30F6263F
:10309600983123082000B300210022082000B20046
:1030A600210021082000B100210020082000B000E6
:1030B600D52498319D209831E2019220983105302F
:1030C600E8002830DB21983178302000F626983148
:1030D60027082000B300210026082000B2002100A6
:1030E60025082000B100210024082000B000D524C6
:1030F60098319D2098310430E200922098310330B7
:10310600E8003C30DB21983105302000C60007304E
:10311600C7009430C8003C30C9007630A42D6D0835
:10312600E6006C08E5006B08E4006A08E3003C3042
:10313600E70008002F08ED002E08EC002D08EB0034
:103146002C08EA00080005302100D40020000930D0
:10315600C601C700943099279831A4250230C600CD
:103166001530C70094308731DF279831A425983170
:103176000630C600EA30C700933099279831A42557
:1031860098310A30F626983133082000B300210022
:1031960032082000B200210031082000B1002100D1
:1031A60030082000B000D524983118219831E2016A
:1031B6000D2198310530E8002830DB219831783030
:1031C6002000F626983137082000B3002100360883
:1031D6002000B200210035082000B100210034088B
:1031E6002000B000D5249831182198310430E2002F
:1031F6000D2198310430E8003030DB21983105305C
:103206002000C6000730C7009430C8003C30C90013
:103216007730A42D6D08E6006C08E5006B08E40025
:103226006A08E3003C30E70008002F08ED002E088E
:10323600EC002D08EB002C08EA00080009302100FC
:10324600D40020000130C601C70094309927983178
:10325600A4250230C6001530C70094308731DF2719
:103266009831A42598310630C600EA30C70093305D
:1032760099279831A42598310A30F62698312B08DB
:103286002000B30021002A082000B20021002908EE
:103296002000B100210028082000B000D524983174
:1032A6002F082100E30020002E082100E200200064
:1032B6002D082100E10020002C082100E00000304C
:1032C6006302031D702901306202031D70298630D6
:1032D6006102031D7029A0306002031C79290130A8
:1032E600E301E2008630E1009F30E0002000E201C9
:1032F600210063082000E600210062082000E500A6
:10330600210061082000E400210060082000E3009D
:103316003C30E7000530E8002830DB219831783072
:103326002000F62698312F082000B30021002E0831
:103336002000B20021002D082000B10021002C0839
:103346002000B000D52498312F082100DF0020008E
:103356002E082100DE0020002D082100DD002000BF
:103366002C082100DC0004302000E20021005F0868
:103376002000E60021005E082000E50021005D082F
:103386002000E40021005C082000E3003C30E70058
:103396000330E8003C30DB21983105302000C600C0
:1033A6000730C7009430C8003C30C9007630A42DE1
:1033B600E9006808013A0319462A033A0319332A31
:1033C600013A03191D2A073A0319052A013A031976
:1033D600ED29582A6208C1000A30B9002730C926EB
:1033E60098311030AC003D279831D5249831ED2620
:1033F600983131269831932796311B269831123011
:103406002000E9076208C1000A30B9000330C92666
:103416009831E830AC003D279831D5249831ED2617
:10342600983131269831932796311B2698311230E0
:103436002000E9076208C1000A30B90064304D2750
:1034460098313D279831D5249831ED26983131268B
:103456009831932796311B26983112302000E907C0
:10346600C52798314D2798313D279831D524983175
:10347600ED26983131269831932796311B269831BF
:1034860012302000E907C5279831BA01BB01BC01FB
:103496006608C0006508BF006408BE006308BD007A
:1034A60031269831932796311B2E080002302100D1
:1034B600D4002000AC279831A42598310230E200D0
:1034C60021005B082000E40021005A08DF2795311F
:1034D600AA25983103302000C6000530C700943075
:1034E600F0279831A42598310630D0269831AB269E
:1034F6009831D52498311627983100309E2398317B
:103506009D2798318C2698310630BD269831AB26FA
:103516009831D5249831ED269831312698314627B1
:1035260098312430CA01CA0A9E2398315C27983103
:10353600C125983106302000C6000A30F62697319C
:103546009F279831D5249831162798314A309E23E3
:10355600983189279831A42D04302100D4000A30EF
:103566002000F62697319F279831D52498312D08CB
:10357600CF002C08CE0027304F02103003194E0220
:10358600031CC92A0F30CE002730CF00F430C60105
:10359600C700933099279831A4259831C6014F0862
:1035A600C8004E08C7003C30C9000430CA0052307B
:1035B6009E23983102302000C600E530C7009330C4
:1035C60099279831A42598310230C6007830F6261E
:1035D60098313F082000B30021003E082000B200C9
:1035E60021003D082000B10021003C082000B00069
:1035F600D52498312D08372798310230CA00523029
:103606009E23983102302000C60021003F0820008A
:10361600C00021003E082000BF0021003D08200018
:10362600BE0021003C082000BD003C30C036BF0C67
:10363600BE0CBD0CB900BA01BB01BC0131269831E4
:10364600462798310230CA006A309E230230200095
:10365600A5003C30A60068309431F024983104303F
:103666002000C600EF30C700933099279831A42573
:1036760098310430D0269831AB269831D52498312C
:103686001627983152309E23983104302000A50029
:103696003C30A60072308C2698310430BD26983115
:1036A600AB269831D5249831ED26983131269831BC
:1036B600462798317530CA01CA0A9E2398310630CA
:1036C6002000C600DF30C700933099279831A42523
:1036D60098310630C60021003F082000AF002100C7
:1036E6003E082000AE0021003D082000AD0021006C
:1036F6003C082000AC0021003B082000A30021006C
:103706003A082000A200210039082000A10021006B
:1037160038082000A0000C30CA2798316726983157
:103726000D279831D52498312D0837279831043044
:10373600CA0052309E2BCB004A08013A0319032CCB
:10374600033A0319F22B013A0319DE2B073A031940
:10375600C72B013A0319B02B0F2C4608AC000A30D0
:10376600A8001030A901A0002730D9279631E926F4
:103776009831CF2797312927983155279831C12578
:1037860098310B302000CB074608AC000A30A80061
:10379600E830A901A0000330D9279631E9269831EF
:1037A600CF2797312927983155279831C125983148
:1037B6000B302000CB074608AC000A30A800643066
:1037C600BD279631E9269831CF2797312927983199
:1037D60055279831C12598310B302000CB07D427C7
:1037E6009831BD279631E9269831CF279731292779
:1037F600983155279831C12598310B302000CB07D9
:10380600D427A9014808AB004708AA009731292701
:10381600983155279831C12D08002100D401D40ACA
:103826004C082000AC0021004D082000AD00AE0180
:10383600AF0121005A082000A00021005B082000EB
:10384600A100C830A201A301CA2798316726983182
:103856000D279831D52498312D08ED002C08EC0061
:1038660003306D02E83003196C02031C3E2CE7306E
:10387600EC000330ED00AC279831A4250230E200BD
:103886006D08E4006C08E3003C30E500103095312B
:10389600AA25983102302000C6000D30C7009430AA
:1038A600E8279831A42598310430C600F930C700BE
:1038B6009330E8279831A42598310630D0269831E0
:1038C600AB269831D52498311627983100309E239F
:1038D60098319D2798318C2698310630BD2698312F
:1038E600AB269831D5249831ED269831312698317A
:1038F600462798312430CA01CA0A9E2398315C278C
:103906009831C1259831D62698310A30CA27983180
:10391600672698310D279831D52498317E2798311E
:10392600FC269831A3279831D52498312D083727BE
:1039360098310230CA0051309E239831063020005B
:10394600A5003C30A60067308C269831D6269831E3
:103956006430CA279831672698310D279831D524C7
:1039660098317E2798310A30B900BA01BB01BC01F3
:10397600FC269831A3279831D5249831ED26983125
:1039860031269831462798316A30CA01CA0A9E23E1
:10399600983106302000AC006C30AD003C30AE00F3
:1039A6007630C12DB401B501B601B7012F082E043A
:1039B6002D042C0403190B2DB801B80AAF1BE82CF3
:1039C600AC35AD0DAE0DAF0DE02CB435B50DB60D65
:1039D600B70D2F083302031DFA2C2E083202031DE1
:1039E600FA2C2D083102031DFA2C2C083002031C78
:1039F600052D2C08B0022D08B13B2E08B23B2F082E
:103A0600B33B3414AF36AE0CAD0CAC0CB80BE82C93
:103A16003708AF003608AE003508AD003408AC00F4
:103A2600080007302100D400D62698316430CA2712
:103A36009831672698310D279831D52498312F086B
:103A4600EB002E08EA002D08E9002C08E800FC2609
:103A560098316B08B3006A08B2006908B1006808BB
:103A6600B000D52498312D08ED002C08EC00C330A9
:103A7600C601C7009330C8003C30C9000230A425F7
:103A860098310230E20021004B082000E4002100BA
:103A96004A08DF279531AA25983103302000C60051
:103AA6001130C7009430F0279831A425983106309C
:103AB600D0269831AB269831D524983116279831DF
:103AC60000309E2398319D2798318C2698310630F8
:103AD600BD269831AB269831D5249831ED269831FC
:103AE60031269831462798312430CA01CA0A9E23C6
:103AF60098315C279831C125983106302000C600E0
:103B06006C08AC006D08AD00AE01AF0121004A089B
:103B16002000A00021004B082000A1006430A20173
:103B2600A301CA279831672698310D279831D524E5
:103B36009831162798314A309E2398318927983133
:103B4600A42DCC00CD0164279831003A0319080052
:103B560020304D02031808004608AC00642798314F
:103B6600AD004908AE000A30F4004D08F42798313C
:103B76004C07C12598312000CD0AA62DC30021305F
:103B8600C4002D020318C92D2D30AD007F302D0243
:103B9600031CCF2D2D30AD002E08A200430887311F
:103BA6001627983120002E08A2002C0880314E20BE
:103BB60098312000C501C50A4508FF3E7127983196
:103BC6001C2698311F2798311C269831B427983126
:103BD6000D30C50A4502031CDF2D2E08EC27963151
:103BE600BC26983120002E08A200430887311627EC
:103BF600983120002E08A2002C08013E80314E206C
:103C060098310D302000C5004508F33E71279831E4
:103C16001C2698311F2798311C269831B4279831D5
:103C26001830C50A4502031C072E2E08EC279631CC
:103C3600BC2EF401F501201C242E2208F4072308CB
:103C4600F53DA235A30DA136A00C21082004031DC5
:103C56001E2E7508A1007408A00008003C083B044D
:103C66003A04390403195E2EF401F40ABC1B402EF3
:103C7600B935BA0DBB0DBC0D382E3C084002031DEC
:103C86004E2E3B083F02031D4E2E3A083E02031DF0
:103C96004E2E39083D02031C582E3908BD023A083B
:103CA600BE3B3B08BF3B3C08C03BBC36BB0CBA0C1A
:103CB600B90CF40B402E4008BC003F08BB003E0880
:103CC600BA003D08B9000800A801A901AA01AB0184
:103CD600201C752E2408A8072508A93D2608AA3DFC
:103CE6002708AB3DA435A50DA60DA70DA336A20C3E
:103CF600A10CA00C2308220421042004031D6B2E12
:103D06002B08A3002A08A2002908A1002808A00061
:103D16000800A7002508013EA2002608A3002708E0
:103D26009631A3269831E427953114259831200041
:103D36002608F500583095311425983120002608BC
:103D4600F5003830953114259831E4279531142D36
:103D5600AC00210059082000B300210058082000BB
:103D6600B200210057082000B100210056082000AB
:103D7600B00008002000C6000A30B9000830BA01B9
:103D8600BB01BC01AF01AE01AD00CA34BA01BB0133
:103D9600BC01AF01AE01AD000800C6005730AF014F
:103DA600AE01AD00E434E1302000AC00AD01AE015F
:103DB600AF01210059082000A30021005808200067
:103DC600A200210057082000A1002100560820006B
:103DD600A00008002F08C0002E08BF002D08BE0056
:103DE6002C08BD000800AC00AD01AE01AF012100FA
:103DF600080021003B082000AF0021003A082000FF
:103E0600AE00210039082000AD002100380820004E
:103E1600AC0008002308B3002208B2002108B10054
:103E26002008B00008002D08C8002C08C7003C3048
:103E3600C9000330CA0008000030B1008830B20063
:103E460020083107B3002108323DB4002F0833079C
:103E5600B5003008343DB6004408A000E830A101A2
:103E6600A200FF30A3000800C8002C08C7003C30A1
:103E7600C90008006608B3006508B2006408B1000E
:103E86006308B00008003A08C8003908C7003C308B
:103E9600C9000800BA01BB01BC01AC00AD01AE010E
:103EA600AF0108002808303EAD004908AE004B08B7
:103EB600080006302000AC006C30AD003C30AE008F
:103EC6002E344808CB004708CA004D084A0784002C
:103ED6004B0803184B0A850000080800373E860089
:103EE60087014508AF00B0012D08A0001830A101D8
:103EF600A200A30108002F08EB002E08EA002D08F7
:103F0600E9002C08E8000630C6000800063020004C
:103F1600C6001530C7009430C8003C30C9006A346A
:103F26003908C2006708C30069080800C8003C30A9
:103F3600C900003406302000A5003C30A60021341C
:103F46006B08B3006A08B2006908B1006808B000DF
:103F56000800B830C601C7009330C8003C30C9001D
:103F660002343508200784003608213D8500000804
:103F760081000800A901A000A1014808A300470884
:103F8600A20008006208C1000A30B9000800A400B7
:103F9600A501A601A70108002108AB002008AA0078
:103FA60008004608AC000A30A8000800A10048082E
:103FB600A3004708A20008002000E3003C30E5000B
:103FC600103420002608F5000034C8003C30C90033
:103FD6006234A0000C30A1003734C8003C30C90060
:103FE6005F34A100A00174082118A007F435A1369A
:0A3FF600A108031DF62F20080800A3
:020000040001F9
:04000E00FCC9FFDF4B
:10E000000000000000000000000000000000000010
:10E010000000000000000000000000000000000000
:10E0200000000000000000000000000000000000F0
:10E0300000000000000000000000000000000000E0
:10E0400000000000000000000000000000000000D0
:10E0500000000000000000000000000000000000C0
:10E0600000000000000000000000000000000000B0
:10E0700000000000000000000000000000000000A0
:10E080000000000000000000000000000000000090
:10E090000000000000000000000000000000000080
:10E0A0000000000000000000000000000000000070
:10E0B0000000000000000000000000000000000060
:08E0C000000000000000000058
:00000001FF
