:0400000080313F28E4
:100008007E1480318B190B1C28282700961D19286F
:1000180096112000D60A0319D70A0319D80A03191A
:10002800D90A2100C20A0319C30A2700161C23286B
:10003800161020000D1823289531622580312700DD
:10004800961E2E2896122E288B1A0B1D2E289531B7
:10005800922580310B1F3D282100111F38282000D0
:10006800111F382811083D282100911A2000911AE3
:1000780036287E100900803141286E3084002330F4
:1000880085008230FE00FF019531562580315630BB
:10009800EF018400003085001930FE00FF01953122
:1000A80056258031A0308400003085004830FE009D
:1000B800FF019531562580317E10200063287D236D
:1000C800803164302000E200F930E301CD00000007
:1000D800CD0B6B28003264003C3041228031CF23A5
:1000E8008031CF01D00103302000CE009730CD0001
:1000F800CD0B7C28CE0B7C28000064002000CF0AA2
:100108000319D00A5008803ACD0095304D02031DDE
:100118008F28E0304F02031C77282000EC01E4010F
:10012800E501E001E101EE0164000D2903309122AF
:10013800803100307102C93003197002031CA728EE
:100148003C30F401AA28D030F4003C3071238031CF
:100158002000EE0A19290230912280317108F80036
:100168007008F700C630F9000030FA001030FB00C4
:10017800B62280317808E7007708E600AC2800301E
:10018800912280317108F8007008F7006E30F9008C
:100198002330FA004030FB00B62280317808E300B3
:1001A8007708E2008E30E207FE30E33D6208F00097
:1001B8006308F1000230F201F301F701F601F500DE
:1001C8003A30F400DC2380317208E3007108E20061
:1001D80003306302E830031962020318FE28E8308E
:1001E800CD000330CE0062084D02E20063084E3BAA
:1001F800E3000029E201E30103306302E830031958
:100208006202031C0B29E730E2000330E300EE0131
:10021800192920006E08003A03199A28013A03198F
:10022800AF28033A0319C3280B29EF1C1F29B82547
:1002380080312000EF10003065020B300319640292
:10024800031C28296F1529296F110030610202301B
:1002580003196002031C32296F14AD296F10AD29F0
:100268006F1D3F296D0303193B293C3041229D3105
:1002780062258031B7296F1C4B296D08023A031992
:1002880047293C3041229A3103228031B7296D0831
:10029800043A031951293C3041229C312B248031E6
:1002A800B7296F1C6F195A29EC0AB7296D08033A48
:1002B800031960293C30412296313A268031B7290A
:1002C8006F194B296F1C58294B29670866040319B5
:1002D80058296D08063A031973293C304122963192
:1002E8000E268031B7296708660403195829630860
:1002F8006204031958296D08073A031985293C3007
:1003080041229A3157228031B7296F1858296D0830
:10031800083A031992293C30412280316124803106
:10032800B7296F1858296D08093A03199E293C30D6
:100338004122803111248031B7296F1958296D085D
:10034800053A0319AA293C3041228031B124803171
:10035800B7296C088400073004020318A1299431D6
:1003680004350B3E82002000D101D2015208803AA8
:10037800CD0080304D02031DC329183051020318E7
:10038800982827302000CE00F530CD00CD0BCA29A3
:10039800CE0BCA29640072228031EB00023A031D99
:1003A800F4296C08053A031DF429D5278031D301B7
:1003B800FA3053020318F42972228031EB003430EA
:1003C800CE00F130CD00CD0BE729CE0BE729003266
:1003D80020006B0BF129352380312000D30ADC295A
:1003E8006B08023A031D172A6C08063A031D172AE0
:1003F800E5278031D401FA3054020318172A7222F3
:100408008031EB003430CE00F130CD00CD0B0A2A1C
:10041800CE0B0A2A003220006B0B142A41238031AC
:100428002000D40AFF296B08023A031D362A01244A
:100438008031D501FA3055020318392A72228031E9
:10044800EB003430CE00F130CD00CD0B292ACE0B95
:10045800292A003220006B0B332A4D2380312000DB
:10046800D50A1E2A6B0B392AEC0A08306C020318CD
:10047800EC01D10A0319D20ABA29F800F90178085F
:10048800F1007908B03E9B31E72380317808F40009
:1004980002309B314C23803168237808F600F6350A
:1004A8007608FE399B31FC238031003A031D080091
:1004B80040309B31FC238031F70100309B31FC2315
:1004C80080318030F70A7702031C612A6D2380315E
:1004D8000830F90A790203180800432A20008C180A
:1004E800842AFB306802031C7C2A0230E9000034AD
:1004F8000430E80A6802031C0034E901E90A003400
:10050800E801690B8A2A0130E90108006908023A02
:10051800031D00340230E9010800F300C730F2007F
:100528000000F20B942A003200007308F200F20D6A
:10053800F20D21001D087206833972069D00C7302E
:10054800F2000000F20BA52A0032000021009D14E1
:100558009D1C08001C08F100F0011B08F007031897
:10056800F10A08007B082000682780310108FD0097
:100578007B08FF3EA000FF3003180030A100803A3E
:10058800803C031DC92A20087D020318FD017D084F
:100598002000682780317708C03F7808C13F7D0870
:1005A800013EA000003003180130A100AB278031C4
:1005B800860023087A3D87002008C03F2108C13FF4
:1005C8007B08A000A101AB278031A40023087A3D55
:1005D800A50024088600250887004231403FA60070
:1005E800413FA70021082702031DFC2A20082602F4
:1005F8000318142B7B08A000A101A035A10D200829
:100608007907A20021087A3DA30022088600230862
:10061800870001304231810741310318810A0800FF
:10062800F701F801FC017B087C020318282B7C08E1
:1006380068278031403FA200413FA3002208F70706
:100648002308F83DFC0A172B7B08F000F101780815
:10065800F3007708F20093257108F8007008F70096
:100668000800640000305A2780311827803105308F
:100678005A27803118270100080064000A305A27D9
:100688008031182780310F305A2780311827010010
:10069800080064001E305A2780311827803128301E
:1006A8005A2780311827803123305A27803118275C
:1006B80080313430F900F130F800F80B612BF90B78
:1006C800612B00320100080024001614161C0800D3
:1006D8006A2B1615161D08006E2BF5007508F1001B
:1006E80081309B31E72380317508F10074089B3114
:1006F800E72B22008C018D011F3021008C003F3038
:100708008D00C03023008D000D308C0024008D0139
:100718008C012100951722009D019E017030210057
:1007280099002200960116302100970021001A1B1B
:100738009F2B64009A2BC423803121001508C039EF
:1007480017389500B03020009500F03021009E0049
:100758009B019C0101309D002700960195000830FF
:1007680094000B118B162B2664007F30F4003E306A
:10077800F5003C309B3160238B158B170B17080055
:100788008030240094000830950096014F30920084
:1007980095169401080020000330ED01BA00C3301B
:1007A800BB009330BC003C30BD0014309E31582E45
:1007B800F801F901FA01FB01701CEA2B7408F8072B
:1007C8007508F93D7608FA3D7708FB3DF435F50DD7
:1007D800F60DF70DF336F20CF10CF00C73087204F9
:1007E80071047004031DE02B7B08F3007A08F20003
:1007F8007908F1007808F00008000A30ED003C3074
:10080800412204302000BA00A230BB009330BC0063
:100818003C30BD000A309E31582E09302000ED00D2
:10082800F230BA01BB0093309F31992780319E3155
:10083800582680318E279E31582680310630602711
:100848009E31582680310A30C10197272B08200095
:10085800A70021002A082000A6002100290820005E
:10086800A500210028082000A4009E311926803107
:10087800732780310530C5002830012580317A275B
:100888002F082000A70021002E082000A600210024
:100898002D082000A50021002C082000A4009E316E
:1008A80019268031732780310330C5003C3001257B
:1008B8008031842776309E31582E08302000ED0094
:1008C800EE30BA01BB0093309F31992780319E31B9
:1008D800582680318E279E31582680310630602771
:1008E8009E31582680310A30C101972723082000FD
:1008F800A700210022082000A600210021082000CE
:10090800A500210020082000A4009E31192680316E
:10091800732780310530C5002830012580317A27BA
:1009280027082000A700210026082000A600210093
:1009380025082000A500210024082000A4009E31DD
:1009480019268031732780310330C5003C300125DA
:100958008031842776309E31582E05302000ED00F6
:10096800FA30BA01BB0093309F31992780319E310C
:10097800582680318E279E315826803106306027D0
:100988009E31582680310A30C1019727330820004C
:10099800A700210032082000A6002100310820000D
:1009A800A500210030082000A4009E3119268031BE
:1009B800732780310530C5002830012580317A271A
:1009C80037082000A700210036082000A6002100D3
:1009D80035082000A500210034082000A4009E311D
:1009E80019268031732780310430C5003030012545
:1009F8008031842777309E31582EC6004508013A49
:100A08000319662D033A0319552D013A0319412D8F
:100A1800073A03192A2D013A0319132D722D41089B
:100A2800A0000A30F7001030F801F0002730B32793
:100A3800803193258031B9278031732580319D27F6
:100A480099317B21803112302000C6074108A0006F
:100A58000A30F700E830F801F0000330B32780319E
:100A680093258031B9278031732580319D279931AD
:100A78007B21803112302000C6074108A0000A30CF
:100A8800F7006430A327803193258031B92780315E
:100A9800732580319D2799317B21803112302000C8
:100AA800C607BE278031A327803193258031B92717
:100AB8008031732580319D2799317B218031123017
:100AC8002000C607BE278031F8014308FA00420813
:100AD800F900732580319D2799317B290800780812
:100AE800770403198E2DFB01FB0AF81B7E2DF735C1
:100AF800F80D782D78087A02031D842D770879027D
:100B0800031C8A2D7708F9027808FA3BF836F70CA7
:100B1800FB0B7E2D7A08F8007908F7000800F4012D
:100B2800F501710870040319B32DF601F60AF11BDB
:100B3800A02DF035F10D9A2DF435F50D71087302DD
:100B4800031DA82D70087202031CAF2D7008F20255
:100B58007108F33B7414F136F00CF60BA02D7508F0
:100B6800F1007408F00008005D08F5005C08F40066
:100B78005B08F3005A08F2001E30F600182780318F
:100B880021003B08F5003A08F4003908F30038085A
:100B9800F2002830F6001827803120005908F500A7
:100BA8005808F4005708F3005608F2002330F600FE
:100BB8001827803121003308F5003208F400310885
:100BC800F3003008F2001430F600182780312100B5
:100BD8003708F5003608F4003508F3003408F20049
:100BE8001930F6001827803121002308F500220863
:100BF800F4002108F3002008F2000030F60018275E
:100C0800803121002708F5002608F4002508F300A4
:100C18002408F2000530F6001827803121002B083F
:100C2800F5002A08F4002908F3002808F2000A3021
:100C3800F6001827803121002F08F5002E08F4004F
:100C48002D08F3002C08F2000F30F600182F64006E
:100C5800FE30C32780313A3A031DA32E1E30D42616
:100C680080317B08DD007A08DC007908DB00780831
:100C7800DA002830D42680317B082100BB007A08AE
:100C8800BA007908B9007808B8002330D426803132
:100C98007B08D9007A08D8007908D7007808D600E8
:100CA800D60A0319D70A0319D80A0319D90A14301E
:100CB800D42680317B082100B3007A08B200790875
:100CC800B1007808B0001930D42680317B082100A3
:100CD800B7007A08B6007908B5007808B400003083
:100CE800D42680317B082100A3007A08A200790865
:100CF800A1007808A0000530D42680317B082100A7
:100D0800A7007A08A6007908A5007808A4000A3088
:100D1800D42680317B082100AB007A08AA00790824
:100D2800A9007808A8000F30D4267B082100AF005E
:100D38007A08AE007908AD007808AC0008003A30AF
:100D4800F000FE30412780311E305A2780311827A5
:100D5800803128305A2780311827803123305A278C
:100D680080311827803114305A2780311827803174
:100D780019305A2780311827803100305A2780319E
:100D88001827803105305A278031182780310A30DA
:100D98005A278031182780310F305A278031182F71
:100DA8002000A800FF30A400A500A600A70028087E
:100DB800043EC3278031353A031DFE2E043020003F
:100DC800A9002608A7002508A6002408A500A40154
:100DD80028082907FF3EC32780312000A4070130D7
:100DE8000318A5070318A6070318A707A9030319DB
:100DF800072FE52EFF30F200F300F400F500200085
:100E08002808F600182720002409A0002509A100B9
:100E18002609A2002709A300FB002208FA002108DE
:100E2800F9002008F8000800FF30F206F306F4067F
:100E3800F5068B13F0007608043E412780318B17A6
:100E4800F7018B137208F000760877074127803185
:100E58008B177308F2007408F3007508F400043067
:100E6800F501F70A7702031C252F8B133530F000A4
:100E78007608043E41278B170800F10023009518D7
:100E8800422F710891009201700893003F30950538
:100E980003108B1B03148B13151555309600AA30BD
:100EA80096009514151103188B170800F201F30129
:100EB800F401F501F6000800BA00DB30BB009330FE
:100EC800BC003C30BD000034A000A101A035A10D3C
:100ED80020087907860021087A3D87000800210844
:100EE800C3002008C2003C30C400080004302000C1
:100EF800C1007830A000A101A201A30121000800CF
:100F080005302000BA00F830BB009330BC003C30FC
:100F1800BD0008000230BA000630BB009430BC00A7
:100F28003C30BD000A34A000A101A201A3012100A8
:100F380008007708A1004408A20046080800F80144
:100F4800F000F1014308F3004208F20008007B08B2
:100F5800A200A301A235A30D220879070800F10019
:100F68004308F3004208F20008007108FA0070080C
:100F7800F90008004108A0000A30F7000800F00056
:100F8800640023009518C42F7008910092013F3027
:100F9800950515140310151803140030093D13089E
:100FA80008000B30ED003C30412204302000BA002C
:100FB8008A30BB009330BC003C30BD000A309E3103
:100FC800582E0C30ED003C30412204302000BA008D
:100FD8009630BB009330BC003C30BD000A309E31D7
:020FE800582E81
:10100000003400340034003400340034FE34FE3444
:10101000FE34003400340034003400340034003432
:10102000003400343B343B343B340034003400346F
:101030000034003480348034803480348034803410
:10104000803480348034003400340034013401347E
:1010500001340134013401340134013401340034E9
:10106000003400340034FC34FC34FC34FC34FC34F4
:10107000FC340034003400340034003400343F3495
:101080003F343F343F343F343F3400340034003485
:1010900000340034803480348034803480348034B0
:1010A000803480348034003400340034013401341E
:1010B0000134013401340134013401340134003489
:1010C00000347C34FE348234FE347C34C03430341A
:1010D0008C348234803400340034003400342034C2
:1010E0001834063401341F343F3420343F341F3465
:1010F000003400340034E034F034F0343034F03470
:10110000E034003400340034003400341C343E3405
:101110003F34373436343F343E343C343C3400348E
:10112000003400340034003400340E340E34003403
:10113000003400340034003400340034003400340F
:1011400000340034003400340034003400340034FF
:1011500000340034003400340034FC34FE34FE34F7
:1011600006340034003400340034003400340034D9
:1011700000341F343F343F34303400340034003402
:1011800000340034003400340634FE34FE34FC34C1
:1011900000340034003400340034003400340034AF
:1011A00030343F343F341F340034003400340034D2
:1011B0000034003400340034003404341C340E3461
:1011C0001C3404340034003400340034003400345F
:1011D000003400340034003400340034003400346F
:1011E000003400340034803480348034F034F034FF
:1011F00080348034803400340034003400340134CE
:10120000013401340F340F3401340134013400341B
:10121000003400340034003400340034003400342E
:10122000003400340034003400340034003400341E
:1012300000340034B03470340034003400340034EE
:1012400000340034003400340034003400340034FE
:1012500000340034003400340034003400340034EE
:1012600000340034003400340034003400340034DE
:1012700000340034FE34FC34F834F034E034C0344C
:10128000803400340034003400340034FF347F34C0
:101290003F341F340F340734033401340034003436
:1012A00000340034003400340034C034F8343E34A8
:1012B0000634003400340034003400340034303458
:1012C0003E341F3401340034003400340034003420
:1012D0000034003400340034FC34FE34FE34063470
:1012E000FE34FE34FC340034003400340034003466
:1012F0001F343F343F3430343F343F341F340034E4
:10130000003400340034003408340834FC34FC3435
:10131000FE3400340034003400340034003400342F
:10132000003400343F343F343F3400340034003460
:1013300000340034003400343C343E348634FE340F
:10134000FE347C3400340034003400340034003483
:1013500038343E343F3437343134303400340034A0
:1013600000340034003400341C341E34C634FE34DF
:10137000FE34BC3400340034003400340034003413
:101380001E343E3430343F343F341F340034003494
:101390000034003400340034E034FC341E34FE34B5
:1013A000FE34FE34003400340034003400340F3492
:1013B0000F340E340E343F343F343F340E34003497
:1013C0000034003400340034FE34FE34FE3466341D
:1013D000E634E634C63400340034003400340034DB
:1013E0001E343E343E3430343F343F341F340034F6
:1013F0000034003400340034FC34FE34FE346634EF
:10140000EE34EE34CC340034003400340034003494
:101410001F343F343F3430343F343F341F340034C2
:101420000034003400340034063406348634FE348C
:10143000FE343E34003400340034003400340034D0
:10144000003430343F343F34073400340034003447
:101450000034003400340034BC34FE34FE34C6346E
:10146000FE34FE34BC340034003400340034003424
:101470001F343F343F3430343F343F341F34003462
:101480000034003400340034FC34FE34FE340634BE
:10149000FE34FE34FC3400340034003400340034B4
:1014A00019343B343B3433343F343F341F3400343D
:1014B000003400340034003400340034C034C0340C
:1014C000003400340034003400340034003400347C
:1014D00000340034393439340034003400340034FA
:1014E000003400340034003400340034C034C034DC
:1014F000003400340034003400340034003400344C
:1015000000340034B1347134003400340034003419
:1015100000340034003400348034C034C034E0344B
:10152000603460343034003400340034003400342B
:1015300000340134013403340334033406340034FA
:10154000003400340034003460346034603460347B
:1015500060346034603400340034003400340034CB
:1015600003340334033403340334033403340034C6
:101570000034003400340034303460346034E034FB
:10158000C034C034803400340034003400340034BB
:10159000063403340334033401340134003400349A
:1015A0000034003400349C349E349E340634FE34BF
:1015B000FC34F834003400340034003400343B345C
:1015C0003B343B34033403340334013400340034FB
:1015D0000034E0341834CC34E4343234123412346D
:1015E000E234F234743408340034073418343734B5
:1015F0002F34483448344C344F346F342834363424
:101600000034003400340034F034FE340E34FE3440
:10161000F0340034003400340034003400343E34FC
:101620003F340D340C340D343F343E340034003438
:10163000003400340034FE34FE34FE34C634FE344C
:10164000BE34BC34003400340034003400343F3441
:101650003F343F3430343F343F341F34003400349F
:10166000003400340034FC34FE34FE3406343E349E
:101670003E343C34003400340034003400341F3431
:101680003F343F3430343F341F340F34003400349F
:10169000003400340034FE34FE34FE340634FE34AC
:1016A000FE34FC34003400340034003400343F3461
:1016B0003F343F3430343F343F341F34003400343F
:1016C00000340034003400340034FE34FE34FE3480
:1016D000C634C634003400340034003400340034DE
:1016E00000343F343F343F3430343034303400340D
:1016F00000340034003400340034FE34FE34FE3450
:10170000C634C634003400340034003400340034AD
:1017100000343F343F343F3400340034003400346C
:10172000003400340034FC34FE34FE340634BE345D
:10173000BC34B834003400340034003400341F3476
:101740003F343F3430341F343F343F3400340034AE
:10175000003400340034FE34FE34FE34C034FE3431
:10176000FE34FE34003400340034003400343F349E
:101770003F343F3400343F343F343F34003400348E
:10178000003400340034003400340034FE34FE34BD
:10179000FE340034003400340034003400340034AB
:1017A000003400343F343F343F34003400340034DC
:1017B00000340034003400340034FE34FE34FE348F
:1017C0000034003400340034003400340034003479
:1017D00030343F343F341F3400340034003400349C
:1017E0000034003400340034FE34FE34FE34E0347F
:1017F000F834FE341E34063400340034003400342F
:101800003F343F343F3403340F343F343C343034BE
:1018100000340034003400340034FE34FE34FE342E
:101820000034003400340034003400340034003418
:1018300000343F343F343F343034303400340034EB
:10184000003400340034FE34FE34FE347E34E034A0
:101850001E34FE34FE34FE340034003400343F3491
:101860003F343F3400343F3400343F343F343F345E
:101870000034003400340034FE34FE34FE34F034DE
:101880008034FE34FE34003400340034003400343C
:101890003F343F34003407343F343F343F34003466
:1018A000003400340034F834FE34FE340634FE34A0
:1018B000FE34F834003400340034003400340F3483
:1018C0003F343F3430343F343F341F34003400342D
:1018D0000034003400340034FE34FE34FE348634E8
:1018E000FE34FC340034003400340034003400345E
:1018F0003F343F343F340134013400340034003489
:10190000003400340034F834FE34FE340634FE343F
:10191000FC34F834003400340034003400341F3414
:101920003F343F3470347F345F345F3400340034EC
:101930000034003400340034FE34FE34FE34C63447
:10194000FE34FE347C34003400340034003400347F
:101950003F343F343F3400343F343F343F3400346D
:1019600000340034003400347C34FE34FE34C63499
:101970009E341C340034003400340034003400340D
:101980001E343E3430343F343F341F34003400348E
:10199000003400340034003406340634FE34FE349F
:1019A000FE3406340634003400340034003400348D
:1019B000003400343F343F343F34003400340034CA
:1019C000003400340034FE34FE34FE340034FE347F
:1019D000FE34FE34003400340034003400341F344C
:1019E0001F343F3430343F343F341F34003400342C
:1019F0000034003400340E34FE34FE34F03400344D
:101A0000F034FE34FE340E3400340034003400343C
:101A100003343F343F3438343F343F3403340034EC
:101A20000E34FE34FE34E0340034FE343E34FE34F2
:101A30000034F034FE34FE34003403343F343F3499
:101A400038340F3400340F3438343F343F340334E7
:101A500000340034003400340E34FE34FE34C0341C
:101A6000FE34FE340E3400340034003400340034CC
:101A70003C343F343F3400343F343F343C34003452
:101A800000340034003406347E34FE348034FE34B6
:101A90007E34063400340034003400340034003422
:101AA00000343F343F343F340034003400340034D9
:101AB000003400340034003406340634C634FE34B6
:101AC0007E340E34003400340034003400340034EA
:101AD00038343E343F343134303430340034003420
:101AE000003400340034003400340034FE34FE345A
:101AF000FE34063400340034003400340034003442
:101B0000003400343F343F343F3430340034003448
:101B1000003400340034003406343E34F834C03429
:101B20000034003400340034003400340034003415
:101B30000034003401341F343E3430340034003477
:101B4000003400340034003400340634FE34FE34F3
:101B5000FE340034003400340034003400340034E7
:101B6000003430343F343F343F34003400340034E8
:101B700000340034003400348034F0347C341E34BB
:101B80007C34F034803400340034003400340034C9
:101B900000340034003400340034003400340034A5
:101BA0000034003400340034003400340034003495
:101BB0000034003400340034003400348034803485
:101BC00080348034803480348034803480340034F5
:101BD000003400340034003401340334033402345C
:101BE0000034003400340034003400340034003455
:101BF0000034003400340034003400340034003445
:101C0000003400340034E034F034F0343034F03454
:101C1000F034E034003400340034003400341E3436
:101C20003E343F3413343F343F343F3400340034C7
:101C3000003400340034FE34FE34FE342034F034FA
:101C4000F034E034003400340034003400343F34E5
:101C50003F343F3410343F343F341F3400340034B9
:101C6000003400340034E034F034F0343034F034F4
:101C7000F034E034003400340034003400341F34D5
:101C80003F343F3430343E341E340E34003400349C
:101C9000003400340034E034F034F0342034FE34C6
:101CA000FE34FE34003400340034003400341F3479
:101CB0003F343F3410343F343F343F340034003439
:101CC000003400340034E034F034F034B034F03414
:101CD000F034E034003400340034003400341F3475
:101CE0003F343F3431343D343D341D34003400340E
:101CF00000340034003400340034FC34FE34F63454
:101D000036340034003400340034003400340034FD
:101D100000343F343F343F34003400340034003466
:101D2000003400340034F034F034F0342034F03433
:101D3000F034F034003400340034003400343334F0
:101D40007734773462347F347F343F340034003466
:101D5000003400340034FE34FE34FE342034F034D9
:101D6000F034E034003400340034003400343F34C4
:101D70003F343F3400343F343F343F340034003488
:101D800000340034003400340034F634F634F634D1
:101D900000340034003400340034003400340034A3
:101DA00000343F343F343F340034003400340034D6
:101DB00000340034003400340034F634F634F634A1
:101DC0000034003400340034003400340034003473
:101DD00060347F347F343F340034003400340034C6
:101DE000003400340034FE34FE34FE348034F034E9
:101DF000F0341034003400340034003400343F3404
:101E00003F343F3401343F343F3430340034003405
:101E100000340034003400340034FE34FE34FE3428
:101E20000034003400340034003400340034003412
:101E300000343F343F343F34003400340034003445
:101E40000034F034F034F0342034F034F034E03442
:101E50002034F034F034E03400343F343F343F3445
:101E600000343F343F343F3400343F343F343F3458
:101E7000003400340034F034F034F0342034F034E2
:101E8000F034E034003400340034003400343F34A3
:101E90003F343F3400343F343F343F340034003467
:101EA000003400340034E034F034F0343034F034B2
:101EB000F034E034003400340034003400341F3493
:101EC0003F343F3430343F343F341F340034003427
:101ED000003400340034F034F034F0342034F03482
:101EE000F034E034003400340034003400347F3403
:101EF0007F347F3410343F343F341F340034003497
:101F0000003400340034E034F034F0342034F03461
:101F1000F034F034003400340034003400341F3422
:101F20003F343F3410347F347F347F340034003406
:101F30000034003400340034F034F034F0346034D1
:101F40007034003400340034003400340034003481
:101F50003F343F343F340034003400340034003424
:101F6000003400340034E034F034F0343034703471
:101F700070346034003400340034003400341834D9
:101F800039343B3433343F343E341E34003400346F
:101F90000034003400340034FC34FC34FC3430347D
:101FA0000034003400340034003400340034003491
:101FB0003F343F343F343034003400340034003494
:101FC000003400340034F034F034F0340034F034B1
:101FD000F034F034003400340034003400341F3462
:101FE0003F343F3410343F343F343F340034003406
:101FF0000034003400347034F034F0340034F03401
:10200000F0347034003400340034003400340034D0
:102010000F343F3430343F340F3400340034003454
:102020000034F034F034F0340034F034F034F03470
:102030000034F034F034F034003400343F343F34B2
:1020400038343F3400343F3438343F343F34003484
:102050000034003400341034F034F0340034F03400
:10206000F0341034003400340034003400342034B0
:102070003C343F3403343F343C34203400340034A7
:10208000003400343034F034F03480340034F03430
:10209000F03430340034003400340034003463341D
:1020A0007F347F3478347F341F340034003400347C
:1020B00000340034003400343034F034F034F03480
:1020C0000034003400340034003400340034003470
:1020D0003E343F343F343134003400340034003473
:1020E0000034C034F034F834F834FC34FC343C347C
:1020F0003C34FC34FC34F834F834F034C03400346C
:10210000003400340034FF34FF34FF34FF34FF3434
:10211000FF3400340034FF34FF34FF34FF34FF3425
:10212000FF3400340034003400347F34FF34FF3493
:10213000FF34FF34FF3480348034FF34FF34FF3405
:10214000FF34FF347F340034003400340034003472
:1021500001340334033407340734073407340734B5
:1021600007340334033401340034003400340034C1
:10217000003400340034C034C034E034E034F0348F
:10218000F034F834FC34FC34FC34003400340034D3
:10219000003400340034003400340134013401349C
:1021A0000334FF34FF34FF34FF34FF34FF34003492
:1021B000003400340034003400340034003400347F
:1021C000003400340034FF34FF34FF34FF34FF3474
:1021D000FF34003400340034003400340034003460
:1021E000003400340034003400340734073407343A
:1021F000073407340734003400340034003400342A
:1022000000340034C034F034F834FC34FC343C3452
:102210003C34FC34FC34F834F834F034C03400344A
:1022200000340034003400340734073407340734F2
:102230000734E034F834FF34FF34FF34FF343F34E4
:102240000F34003400340034003400340034C0341F
:10225000F034FC34FF34FF34FF34BF348F34873420
:1022600081348034003400340034003400340034CD
:102270000734073407340734073407340734073486
:102280000734073407340734003400340034003492
:102290000034F034F834F834FC34FC34FC343C348E
:1022A0003C34FC34FC34FC34F834F034E034003496
:1022B0000034003400340134013401340134013479
:1022C00079347834F834FF34FF34FF34EF34EF34AA
:1022D000C7340034003400340034FE34FE34FE349D
:1022E000FE34FE34FE3480348034FF34FF34FF3457
:1022F000FF34FF347F3400340034003400340034C1
:102300000134033403340734073407340734073403
:10231000073403340334013400340034003400340F
:102320000034003400348034F034FC34FC34FC34A9
:10233000FC34FC34FC34FC34FC3400340034003411
:10234000003400340034E034FC34FF347F3407348C
:102350000034FF34FF34FF34FF34FF34FF340034E3
:1023600000340034003400347F347F347F347F34D1
:102370007E347E347E34FF34FF34FF34FF34FF3448
:10238000FF347E347E3400340034003400340034B2
:102390000034003400340034003407340734073488
:1023A0000734073407340034003400340034003478
:1023B0000034FC34FC34FC34FC34FC34FC343C3459
:1023C0003C343C343C343C343C343C343C340034C9
:1023D0000034003400347F347F347F347F347F34E2
:1023E0007F341C341E34FE34FE34FE34FE34FC34A0
:1023F000F03400340034003400347C34FC34FC34D9
:10240000FC34FC34FC3480348034FF34FF34FF343B
:10241000FF34FF34FF34003400340034003400341F
:1024200001340334033407340734073407340734E2
:1024300007340334033401340034003400340034EE
:102440000034C034F034F834F834FC34FC343C3418
:102450003C34FC34FC34F834F834F034C034003408
:10246000003400340034FF34FF34FF34FF34FF34D1
:10247000FF3470347834F934F934F934F934F13400
:10248000E13400340034003400347F34FF34FF344E
:10249000FF34FF34FF3480348034FF34FF34FF34A2
:1024A000FF34FF34FF34003400340034003400348F
:1024B0000134033403340734073407340734073452
:1024C000073403340334013400340034003400345E
:1024D000003400343C343C343C343C343C343C34F4
:1024E000FC34FC34FC34FC34FC34FC340034003464
:1024F000003400340034003400340034003400343C
:102500008034F834FF34FF34FF34FF343F34013477
:10251000003400340034003400340034003400341B
:102520000034F034FF34FF34FF34FF34FF34073419
:1025300000340034003400340034003400340034FB
:1025400000340034063407340734073407340734C2
:1025500000340034003400340034003400340034DB
:102560000034E034F034F834F834FC34FC343C34D7
:102570003C34FC34FC34FC34F834F034E0340034C3
:102580000034003400348734EF34FF34FF34FF3438
:10259000FF3478347834FF34FF34FF34EF34EF34D1
:1025A000C73400340034003400347F34FF34FF3447
:1025B000FF34FF34FF3480348034FF34FF34FF3481
:1025C000FF34FF34FF34003400340034003400346E
:1025D0000134033403340734073407340734073431
:1025E000073403340334013400340034003400343D
:1025F0000034E034F034F834F834FC34FC343C3447
:102600003C34FC34FC34F834F834F034C034003456
:10261000003400340034FF34FF34FF34FF34FF341F
:10262000FF34C034C034FF34FF34FF34FF34FF3490
:10263000FF3400340034003400347034F134F334A7
:10264000F334F334F33483348134FF34FF34FF3410
:10265000FF34FF347F34003400340034003400345D
:1026600001340334033407340734073407340734A0
:1026700007340334033401340034003400340034AC
:1026800000340034003400340034003400340034AA
:10269000003400340034003400340034003400349A
:1026A000003400340034003400340034003480340A
:1026B00080348034803480348034803480340034FA
:1026C000003400340034003400340034003400346A
:1026D0000034073407340734073407340734073429
:1026E0000734003400340034003400340034003443
:1026F000003400340034003400340034003400343A
:102700000034003400340034003400340034003429
:102710009034013452346534733465347434203465
:1027200054344F34203431343F340034523465341F
:10273000733465347434203454344F342034323498
:102740003F34003452346534733465347434203487
:1027500074347234693470343F3400344634753420
:1027600065346C34203463346F346E3473347434B1
:1027700000344634753465346C3420347434613438
:102780006E346B3400344D3469346E346934203423
:1027900074347234693470340034423461347434C3
:1027A000743465347234793400345334703465349D
:1027B000653464340034743469346D346534003401
:1027C0004634753465346C340034543472346934AE
:1027D00070340034313430343034003454344F34B5
:1027E0003134003454344F34323400346C342F34A8
:1027F000683400344F3464346F3400344C347434EF
:10280000723400346C347434723400346B346D348C
:1028100000345634003481313429813155298131D5
:10282000642981316929813177298131892981316F
:022830009529E8
:102AAC006400013080010131FE020030FF3B7F08E1
:102ABC007E0403190034572D2100C40A0319C50ADA
:102ACC002000DE0A0319DF0A01305F029830031977
:102ADC005E02031C0800DA0A0319DB0A0319DC0A7C
:102AEC000319DD0A2100B00A0319B10A0319B20A4D
:102AFC000319B30AA00A0319A10A0319A20A03199C
:102B0C00A30AA80A0319A90A0319AA0A0319AB0AEA
:102B1C002000DE01DF0108000B11B0302000950011
:102B2C002100C00A0319C10A013041028730031980
:102B3C004002031CE02D1E30C001C1012000EA0A36
:102B4C006A02031CE02D003061020230031960029E
:102B5C000318B72D00306502023003196402031C00
:102B6C00C62D2100B80A0319B90A0319BA0A0319A8
:102B7C00BB0AB40A0319B50A0319B60A0319B70A32
:102B8C00003020006102023003196002031CDD2DAD
:102B9C002100A40A0319A50A0319A60A0319A70AF6
:102BAC00AC0A0319AD0A0319AE0A0319AF0A2000C7
:102BBC00EA01EF142100BC0A0319BD0A02303D02E0
:102BCC00343003193C02031CF72D43082000E100AC
:102BDC00210042082000E0002100C201C301BC0119
:102BEC00BD01BE0A0319BF0A02303F02AB30031904
:102BFC003E02031C0800BE01BF0145082000E50091
:102C0C00210044082000E4002100C401C501080093
:102C1C0006302000ED00CD30BA01BB009330BC0073
:102C2C003C30BD0002309E31582696310230C10036
:102C3C006708C8006608C700C836C70CC836C70C7A
:102C4C004708C2004808C3003C30C4001030BE2600
:102C5C0003302000BA000930BB009430BC003C307B
:102C6C00BD0064309E31582E03302000ED0005303D
:102C7C00BA00E530BB0093309F31992796319E31D5
:102C8C0058269631D530BA01BA0ABB0093309F3121
:102C9C00992796319E31582696316508C3006408F1
:102CAC00C2003C30C336C20CC101C4000330C500A5
:102CBC00403085310125963104302000C1005B087D
:102CCC00C3005A08C2003C30C4003030BE2EF9009C
:102CDC007708013EF4007808F5007908D127963181
:102CEC007808F1000030A52696317808F1006330A1
:102CFC00A52696317808F1006330A5269631780820
:102D0C00F1000030A52EF9007708013EF400780898
:102D1C00F5007908D12796317808F1000030A52606
:102D2C0096317808F1005830A52696317808F100D4
:102D3C003830A52696317808F1000030A52EF30026
:102D4C008331682396317108F200F2357208FE392E
:102D5C009B31FC239631003A031D080040309B3117
:102D6C00FC23963173089B31FC23963183316D2BF8
:102D7C00C6004308803AC50083304502031DC82EA7
:102D8C00E8304202031CE82E20004308803AC500BC
:102D9C00A7304502031DD42E103042020318E82E32
:102DAC0020004108A000E830F0000330F100430897
:102DBC00F3004208F2002F2796317008FB27993157
:102DCC007B2196312000C31FF82E4108A0000B3048
:102DDC00FB2799317B2196312000C209C309C20A15
:102DEC000319C30A4108A0000A30F8006430E72731
:102DFC0096312F279F31CA2796316F279631EF27AF
:102E0C00123E99317B219631F5279631E727963181
:102E1C002F279F31CA2796316F279631EF27243EF3
:102E2C0099317B21963120004108F7004408F800C5
:102E3C004608343EA8279631F5279631F901430808
:102E4C00FB004208FA006F279631EF273D3E99317F
:102E5C007B29F501F11F392FF009F109F00A03194B
:102E6C00F10AF501F50AF31F422FF209F309F20AF0
:102E7C000319F30A0130F506F601F7017108700425
:102E8C000319622FF401F40AF11B4F2FF035F10DE9
:102E9C00492FF635F70D71087302031D572F700873
:102EAC007202031C5E2F7008F2027108F33B761459
:102EBC00F136F00CF40B4F2F750803196A2FF60935
:102ECC00F709F60A0319F70A7708F1007608F000FB
:102EDC000800FD01FB1F792FFA09FB09FA0A0319F7
:102EEC00FB0AFD01FD0AF91F802FF809F909F80A00
:102EFC000319F90A7908780403199B2FFC01FC0AC1
:102F0C00F91B8B2FF835F90D852F79087B02031DE2
:102F1C00912F78087A02031C972F7808FA02790807
:102F2C00FB3BF936F80CFC0B8B2F7D080319A32FF8
:102F3C00FA09FB09FA0A0319FB0A7B08F9007A085B
:102F4C00F8000800A6007708033EF4007808F500A6
:102F5C002608D12796312000A7012708203E86009D
:102F6C00023087018101A70A2702031CB32F02300C
:102F7C00A7002708203E86001F30870181000730FC
:102F8C00A70A2702031CBF2F7808F1000630F200B5
:102F9C0020309C31092CF6007508F10076080F39A9
:102FAC009B31E72396317508F100760E0F391038F6
:102FBC009B31E7237508F10074080F39B03A9B3147
:102FCC00E72BF901F000F1014308F3004208F2008D
:102FDC0008007808A1004408A20046080800200058
:102FEC004108A0000A30F8000800A1004408A20023
:042FFC00460808007B
:1032F600BD001230BE000B30BF012102031C852920
:103306000A30A1002008D4279731D127993120000F
:10331600C0013E08400203189A29293087279931AF
:103326002727993137239931C82699318C292208C4
:10333600F1003E08F20029300924993120002008C6
:10334600013ED4279731D127993120003F08123EFC
:10335600C0003E08123E1B2799310318BE292930AA
:10336600200087279931EE3E272799313723993157
:10337600C8269931AC299D27993109249931200015
:103386002008023ED4279731D127993120003F08E3
:10339600243EC0003E08243E1B2799310318DF292E
:1033A6002930200087279931DC3E2727993137239A
:1033B6009931C8269931CD299D279931092499310A
:1033C60020002008033ED4279731D12799312000C9
:1033D6003F08363EC0003E08363E1B27993103188B
:1033E600002A2930200087279931CA3E272799319C
:1033F60037239931C8269931EE299D279931092C11
:1034060002302000ED00A327993158269931023069
:10341600C1006108C3006008DF279631BE269931D6
:1034260003302000BA00F630BB009330F027993104
:10343600582699310630E6269931DD269931192626
:103446009931EE2699310330BE000030F0249931CF
:10345600C5279631892699310630B2269931192623
:1034660099310D27993175269931302799312430B4
:10347600BE01BE0AF024993150279931E0229931D4
:1034860006302000BA000A307A2799311926993178
:10349600EE2699310330BE004A30F02499310630C9
:1034A600200058279931582E07302000ED0019309A
:1034B60016279931DD269931192699312308CA0034
:1034C6002208C9002108C8002008C7003E279931F4
:1034D6004A08A7004908A6004808A5004708A4000E
:1034E600192699312108CC002008CB00B930BA0141
:1034F600BB009330BC003C30BD00023058269931E9
:103506000230C1006308C3006208DF279631BE2679
:10351600993103302000BA000230BB009430F02706
:103526009931582699310630E6269931DD269931AA
:1035360019269931EE2699310330BE000030F02469
:103546009931C5279631892699310630B2269931A7
:10355600192699310D2799317526993130279931D8
:103566002430BE01BE0AF024993150279931E02259
:10357600993106302000BA004B08A0004C08A10083
:10358600A201A3016208F0006308F1000A30F2010B
:10359600F301E7278331DC2399314727993119262F
:1035A6009931EE2699310330BE004A30F024993124
:1035B6000630200058279931582EB7002130B80020
:1035C60021020318E82A2D30A1007F302102031CB6
:1035D600EE2A2D30A1002208F40037084C23993139
:1035E60020002208F4002008592399312000B9014F
:1035F600B90A3908FF3E6D27993137239931F526E7
:10360600993137239931AB2799310D30B90A3902EF
:10361600031CFC2A2208EC27993109249931200041
:103626002208F40037084C23993120002208F400C0
:103636002008013E592399310D302000B900390880
:10364600F33E6D27993137239931F5269931372382
:103656009931AB2799311830B90A3902031C222B4C
:103666002208EC279931092CF401F501701C3F2B37
:103676007208F4077308F53DF235F30DF136F00CD8
:1036860071087004031D392B7508F1007408F000E9
:103696000800F5007408F10075080F39E723993121
:1036A6007408F100750E0F391038E72BF500740811
:1036B600F10075080F39B03AE72BF6007608F100ED
:1036C600AE30E72399317608F100D530E7239931FA
:1036D6007608F1008030E72399317608F100A830AA
:1036E600E72399317608F1007508E72399317608C2
:1036F600F100D330E72399317608F1000030E72353
:1037060099317608F1000030E72399317608F10007
:103716001030E72399317608F1004030E7239931DC
:103726007608F100B030E72399317608F1008D3044
:10373600E72399317608F1002030E723993176089E
:10374600F1000030E72399317608F100A130E72334
:1037560099317608F100C830E72399317608F100EF
:10376600DA30E72399317608F1001230E7239931F0
:103776007608F1001030E72399317608F100CF3052
:10378600E72399317608F100D930E7239931760895
:10379600F1001F30E72399317608F100DB30E7238B
:1037A60099317608F1004030E72399317608F10027
:1037B600A430E72399317608F100A630E723993142
:1037C6007608F100AF30E72BF30083316823993197
:1037D6007108F200F2357208FE39FC239931003A7D
:1037E600031D08000030FC2399317308FC23833144
:1037F6006D2BF000700824009100951BFF341418FF
:10380600022CAB269931161BFE340034F5008331A9
:10381600682399317108F300F3357308FE39FC23E8
:103826009931003A031D08004030FC239931F40118
:10383600720874020318292C74087507F3008600B1
:1038460087010108FC239931F40A1B2C83316D2B67
:1038560004302000ED00E530BA01BB009330992713
:103866009931582699310A30BA017A2799311926A1
:103876009931EE2699310430BE005430F0240230DE
:10388600200087316027993158260230BA007830F7
:103896008731972799313B082000A70021003A0875
:1038A6002000A600210039082000A50021003808C4
:1038B6002000A40019269931EE2699310230BE0067
:1038C6005430F024993102302000BA007830AD002F
:1038D600AE01AF01B00121003B082000B400210079
:1038E6003A082000B300210039082000B200210068
:1038F60038082000B10075269931302799310230F9
:10390600BE006C30F0240230F7003C30F8006A301C
:1039160096316D26993104302000BA00E030BB00A4
:10392600933099279931582699310430E6269931F2
:10393600DD26993119269931EE2699310330BE00DC
:103946005430F0240430F7003C30F80074309631DF
:10395600892699310430B2269931192699310D27D5
:10396600993175269931302799317830BE01BE0AD2
:10397600F024993106302000BA00D530BB009330D0
:1039860099279931582699310630BA0021003B080B
:103996002000A30021003A082000A20021003908D7
:1039A6002000A100210038082000A0005D08F300D7
:1039B6005C08F2005B08F1005A08F0000C30E727BB
:1039C6008331DC2399314727993119269931EE261F
:1039D60099310430BE005430F02CBF003E08013A45
:1039E6000319552D033A0319442D013A0319302DB5
:1039F600073A0319192D013A0319022D612D3A08C8
:103A0600A0000A30F8001030F901F0002730D9275D
:103A160097312F279931CA2797316F279931372741
:103A26009931E02299310B302000BF073A08A000F7
:103A36000A30F800E830F901F0000330D927973151
:103A46002F279931CA2797316F279931372799310F
:103A5600E02299310B302000BF073A08A0000A3057
:103A6600F8006430BD2797312F279931CA2797313F
:103A76006F27993137279931E02299310B30200091
:103A8600BF07CF279931BD2797312F279931CA27ED
:103A960097316F27993137279931E02299310B30C9
:103AA6002000BF07CF27F9013C08FB003B08FA00BE
:103AB60097316F27993137279931E02A080020007E
:103AC600ED01ED0A6408A0006508A100A201A301AA
:103AD6006008F0006108F1000130F201F301F7011E
:103AE600F601F5009030F4008331DC239931472745
:103AF6009931192699312108CC002008CB000330D2
:103B06004C02E83003194B02031C8D2DE730CB0025
:103B16000330CC00A3279931582699310230C100D1
:103B26004C08C3004B08DF279631BE269931023078
:103B36002000BA00FE30BB009330E32799315826A7
:103B460099310430BA00EA30BB009330E32799314B
:103B5600582699310630BA003C30BB01BC01BD0085
:103B66000330BE000030F0249931C52796318926EE
:103B760099310630B2269931192699310D27993196
:103B860075269931302799312430BE01BE0AF024BA
:103B9600993150279931E022993132302000162789
:103BA6009931DD269931192699318E2799313E278B
:103BB6009931B427993119269931EE269931023077
:103BC600BE005130F0240630F7003C30F800673074
:103BD6009631892699310530200016279931DD2640
:103BE6009931192699318E2799310A30AD00AE01E7
:103BF600AF01B0013E279931B42799311926993181
:103C06000D27993175269931302799316A30BE01D1
:103C1600BE0AF024993106302000BA00E330BB001A
:103C26009330BC003C30BD007630582EA801A90167
:103C3600AA01AB01230822042104200403194F2EF4
:103C4600AC01AC0AA31B2C2EA035A10DA20DA30D11
:103C5600242EA835A90DAA0DAB0D23082702031D96
:103C66003E2E22082602031D3E2E21082502031D94
:103C76003E2E20082402031C492E2008A4022108F7
:103C8600A53B2208A63B2308A73B2814A336A20C73
:103C9600A10CA00CAC0B2C2E2B08A3002A08A2000A
:103CA6002908A1002808A0000800C000C10160275B
:103CB6009931003A03190800203041020318080020
:103CC6003A08A00060279931A1003D08A2000A30F9
:103CD600F0004108F42799314007E022993120008D
:103CE600C10A5A2E30082F042E042D040319A22EC1
:103CF600FC01FC0AB01B842EAD35AE0DAF0DB00D28
:103D06007C2E30083402031D922E2F083302031D29
:103D1600922E2E083202031D922E2D083102031C0C
:103D26009C2E2D08B1022E08B23B2F08B33B30085B
:103D3600B43BB036AF0CAE0CAD0CFC0B842E340885
:103D4600B0003308AF003208AE003108AD000800FD
:103D560016081F39031DAB2E141D0800AB2E2000BC
:103D6600BA000A30AD000930AE01AF01B001A301BF
:103D7600A201A100C430A0005908A7005808A60057
:103D86005708A5005608A40008007030A50090301A
:103D9600A60070082507A7007108263DA800400860
:103DA6002707840028080318280A850000088100D0
:103DB600C00A08005908A7005808A6005708A50019
:103DC6005608A4000800BA006130A301A201A100B0
:103DD600A830A00008002108BC002008BB003C3029
:103DE600BD0008000030A5008830A6007008250731
:103DF600A7007108263DA80023082707A900240864
:103E0600283DAA003808F000E830F101F200FF3042
:103E1600F30008002308B4002208B3002108B2000A
:103E26002008B1000800A000A101A201A30108001A
:103E3600A300003003180130A400803A803C031D23
:103E46000800230840020800860087012108F000C8
:103E56004830F101F200F30108002E08BC002D08DD
:103E6600BB003C30BD0008007808303EA1003D088C
:103E7600A2003F0808005D08A3005C08A2005B08DA
:103E8600A1005A08A00008007308A7007208A6003F
:103E96007108A5007008A400080006302000A000E4
:103EA6006C30A1003C30A2002E34BA000630BB00B4
:103EB6009430BC003C30BD006A343C08BF003B086F
:103EC600BE0041083E0784003F0803183F0A8500EC
:103ED600000808002B3E860087013908A300A401CC
:103EE6002108F0001830F101F200F3010800A000EB
:103EF600A101A201A3015D08A7005C08A6005B085A
:103F0600A5005A08A4000800A3003F08A302400821
:103F16002307A40008002308CA002208C9002108B4
:103F2600C8002008C7000630BA000800BC003C30B4
:103F3600BD00003420002208F1003E08F2002934BA
:103F4600AE30BA01BB009330BC003C30BD00023439
:103F56002908700784002A08713D85000008810041
:103F660008004A08A7004908A6004808A50047080F
:103F7600A4000800F901F000F1013C08F3003B0839
:103F8600F20008000630F7003C30F80021347108D2
:103F9600FB007008FA0008003A08A0000A30F80092
:103FA6000800F4002208F5003D080800F1003C086E
:103FB600F3003B08F2000800C2003C30C400103495
:103FC600BC003C30BD006234F400F501F601F70197
:103FD6000800F1000C30F2002B34BC003C30BD0070
:103FE6005F34F200F10170087218F107F035F2360D
:0A3FF600F208031DF62F7108080001
:020000040001F9
:04000E00FCF9FFDF1B
:10E000000000000000000000000000000000000010
:10E010000000000000000000000000000000000000
:10E0200000000000000000000000000000000000F0
:10E0300000000000000000000000000000000000E0
:10E0400000000000000000000000000000000000D0
:0AE0500000000000000000000000C6
:00000001FF
