:0400000080313F28E4
:100008007E1480318B1A0B1D0C289531AC2580315C
:100018008B190B1C2E282700161C192816102000D7
:100028000D18192895317C2580312700961D29281F
:1000380096112000D60A0319D70A0319D80A0319FA
:10004800D90A2100C20A0319C30A2700961E3D28AF
:1000580096123D280B1F3D282100111F382820002B
:10006800111F382811083D282100911A2000911AE3
:1000780036287E100900803141286E3084002330F4
:1000880085008230FE00FF019531702580315630A1
:10009800EF018400003085001930FE00FF01953122
:1000A80070258031A0308400003085004830FE0083
:1000B800FF019531702580317E102000632875235B
:1000C800803164302000E000F930E101CD0000000B
:1000D800CD0B6B28003264003C3039228031C723B5
:1000E8008031CF01D00103302000CE009730CD0001
:1000F800CD0B7C28CE0B7C28000064002000CF0AA2
:100108000319D00A5008803ACD0095304D02031DDE
:100118008F28E0304F02031C77282000EA01E20113
:10012800E301ED01EE01EC0164000D2903308922A1
:10013800803100307102C93003197002031CA728EE
:100148003C30F401AA28D030F4003C3069238031D7
:100158002000EC0A19290230892280317108F80040
:100168007008F700C630F9000030FA001030FB00C4
:10017800AE2280317808E5007708E400AC2800302A
:10018800892280317108F8007008F7006E30F90094
:100198002330FA004030FB00AE2280317808E100BD
:1001A8007708E0008E30E007FE30E13D6008F0009F
:1001B8006108F1000230F201F301F701F601F500E0
:1001C8003A30F400D42380317208E1007108E0006D
:1001D80003306102E830031960020318FE28E83092
:1001E800CD000330CE0060084D02E00061084E3BB0
:1001F800E1000029E001E10103306102E830031960
:100208006002031C0B29E730E0000330E100EC0139
:10021800192920006C08003A03199A28013A031991
:10022800AF28033A0319C3280B29EF1C1F29BC2543
:1002380080312000EF10003063021530031962028C
:10024800031C28296F1529296F1100306E0202300E
:1002580003196D02031C32296F14A5296F10A529F3
:100268006F1D3F296B0303193B293C3039229D310F
:1002780043258031AF296F1C4B296B08023A0319BB
:1002880047293C3039229931E4218031AF296B0864
:10029800043A031951293C3039229C310A2480310F
:1002A800AF296B08033A03195B293C303922963190
:1002B80056268031AF29EA0AAF2965086404031974
:1002C8005F296B08063A03196B293C3039229631AD
:1002D8002A268031AF296508640403195F2961085B
:1002E800600403195F296B08073A03197D293C301C
:1002F80039229A3138228031AF296F185F296B086B
:10030800083A03198A293C30392280316524803122
:10031800AF296F185F296B08093A031996293C30F1
:100328003922803115248031AF296F195F296B0874
:10033800053A0319A2293C3039228031B52480318D
:10034800AF296A0884000730040203189929873105
:100358000435EB3E82002000D101D2015208803AD8
:10036800CD0080304D02031DBB29183051020318FF
:10037800982827302000CE00F530CD00CD0BC229BB
:10038800CE0BC22964006A228031E900023A031DBB
:10039800EC296A08053A031DEC2907248031D301AA
:1003A800FA3053020318EC296A228031E90034300C
:1003B800CE00F130CD00CD0BDF29CE0BDF29003286
:1003C8002000690BE9292D2380312000D30AD42984
:1003D8006908023A031D0F2A6A08063A031D0F2A04
:1003E800D9278031D401FA30540203180F2A6A221F
:1003F8008031E9003430CE00F130CD00CD0B022A37
:10040800CE0B022A00322000690B0C2A39238031D6
:100418002000D40AF7296908023A031D2E2AF92375
:100428008031D501FA3055020318312A6A22803109
:10043800E9003430CE00F130CD00CD0B212ACE0BAF
:10044800212A00322000690B2B2A45238031200005
:10045800D50A162A690B312AEA0A08306A020318F3
:10046800EA01D10A0319D20AB229F800F901780879
:10047800F1007908B03E9B31C62380317808F4003A
:1004880002309B312B23803160237808F600F63543
:100498007608FE399B31DB238031003A031D0800C2
:1004A80040309B31DB238031F70100309B31DB2367
:1004B80080318030F70A7702031C592A652380317E
:1004C8000830F90A7902031808003B2A20008C1822
:1004D8007C2AFB306602031C742A0230E7000034D1
:1004E8000430E60A6602031C0034E701E70A003418
:1004F800E601670B822A0130E70108006708023A23
:10050800031D00340230E7010800F300C730F20091
:100518000000F20B8C2A003200007308F200F20D82
:10052800F20D21001D087206833972069D00C7303E
:10053800F2000000F20B9D2A0032000021009D14F9
:100548009D1C08001C08F100F0011B08F0070318A7
:10055800F10A08007B082000652780310108FD00AA
:100568007B08FF3EA000FF3003180030A100803A4E
:10057800803C031DC12A20087D020318FD017D0867
:100588002000652780317708C03F7808C13F7D0883
:10059800013EA000003003180130A100A8278031D7
:1005A800860023087A3D87002008C03F2108C13F04
:1005B8007B08A000A101A8278031A40023087A3D68
:1005C800A50024088600250887004231403FA60080
:1005D800413FA70021082702031DF42A200826020C
:1005E80003180C2B7B08A000A101A035A10D200841
:1005F8007907A20021087A3DA30022088600230873
:10060800870001304231810741310318810A08000F
:10061800F701F801FC017B087C020318202B7C08F9
:1006280065278031403FA200413FA3002208F70719
:100638002308F83DFC0A0F2B7B08F000F10178082D
:10064800F3007708F20097257108F8007008F700A2
:10065800080064000030572780311C27803105309E
:10066800572780311C270100080064000A305727EB
:1006780080311C2780310F30572780311C2701001B
:10068800080064001E30572780311C27803128302D
:10069800572780311C2780312330572780311C276A
:1006A80080313430F900F130F800F80B592BF90B90
:1006B800592B00320100080024001614161C0800EB
:1006C800622B1615161D0800662BF5007508F1003B
:1006D80081309B31C62380317508F10074089B3145
:1006E800C62B22008C018D011F3021008C003F3069
:1006F8008D00C03023008D000D308C0024008D014A
:100708008C012100951722009D019E017030210067
:1007180099002200960116302100970021001A1B2B
:10072800972B6400922BBC23803121001508C03917
:1007380017389500B03020009500F03021009E0059
:100748009B019C0101309D0027009601950008300F
:1007580094000B118B162F2664007F30F4003E3076
:10076800F5003C309B313F238B158B170B17080086
:100778008030240094000830950096014F30920094
:1007880095169401080020000330EB01BA00C1302F
:10079800BB009330BC003C30BD0014309E31362E77
:1007A800F801F901FA01FB01701CE22B7408F80743
:1007B8007508F93D7608FA3D7708FB3DF435F50DE7
:1007C800F60DF70DF336F20CF10CF00C7308720409
:1007D80071047004031DD82B7B08F3007A08F2001B
:1007E8007908F1007808F00008000A30EB003C3086
:1007F8003922803104302000BA00A030BB00933089
:10080800E7279E31362E0B30EB003C303922803101
:1008180004302000BA008830BB009330E7279E31AF
:10082800362E09302000EB00F030BA01BB009330BF
:100838009F316D2780319E31362680318B279E313E
:100848003626803106305D279E31362680310A30C3
:10085800C10194272B082000A70021002A082000A6
:10086800A600210029082000A50021002808200052
:10087800A4009D31F7258031702780310530C500EF
:1008880028300525803177272F082000A700210070
:100898002E082000A60021002D082000A500210018
:1008A8002C082000A4009D31F72580317027803165
:1008B8000330C5003C3005258031812776309E31D4
:1008C800362E08302000EB00EC30BA01BB00933024
:1008D8009F316D2780319E31362680318B279E319E
:1008E8003626803106305D279E31362680310A3023
:1008F800C101942723082000A70021002208200016
:10090800A600210021082000A500210020082000C1
:10091800A4009D31F7258031702780310530C5004E
:10092800283005258031772727082000A7002100D7
:1009380026082000A600210025082000A500210087
:1009480024082000A4009D31F725803170278031CC
:100958000330C5003C3005258031812776309E3133
:10096800362E05302000EB00F830BA01BB0093307A
:100978009F316D2780319E31362680318B279E31FD
:100988003626803106305D279E31362680310A3082
:10099800C101942733082000A70021003208200055
:1009A800A600210031082000A50021003008200001
:1009B800A4009D31F7258031702780310530C500AE
:1009C800283005258031772737082000A700210027
:1009D80036082000A600210035082000A5002100C7
:1009E80034082000A4009D31F7258031702780311C
:1009F8000430C500303005258031812777309E319D
:100A0800362EC6004508013A03196A2D033A031920
:100A1800592D013A0319452D073A03192E2D013A8C
:100A28000319172D762D4108A0000A30F700103061
:100A3800F801F0002730B027803197258031B6279C
:100A48008031772580319A2799315C2180311230A5
:100A58002000C6074108A0000A30F700E830F80176
:100A6800F0000330B027803197258031B6278031D8
:100A7800772580319A2799315C2180311230200006
:100A8800C6074108A0000A30F7006430A02780316B
:100A980097258031B6278031772580319A2799317B
:100AA8005C21803112302000C607BB278031A02787
:100AB800803197258031B6278031772580319A2774
:100AC80099315C21803112302000C607BB27803164
:100AD800F8014308FA004208F900772580319A277F
:100AE80099315C290800780877040319922DFB01D5
:100AF800FB0AF81B822DF735F80D7C2D78087A0251
:100B0800031D882D77087902031C8E2D7708F902BA
:100B18007808FA3BF836F70CFB0B822D7A08F800B8
:100B28007908F7000800F401F50171087004031949
:100B3800B72DF601F60AF11BA42DF035F10D9E2D07
:100B4800F435F50D71087302031DAC2D700872029F
:100B5800031CB32D7008F2027108F33B7414F136CC
:100B6800F00CF60BA42D7508F1007408F0000800CD
:100B78005D08F5005C08F4005B08F3005A08F20011
:100B88001E30F6001C27803121003B08F5003A088A
:100B9800F4003908F3003808F2002830F6001C2762
:100BA800803120005908F5005808F4005708F30070
:100BB8005608F2002330F6001C2780312100330844
:100BC800F5003208F4003108F3003008F200143060
:100BD800F6001C27803121003708F5003608F4009C
:100BE8003508F3003408F2001930F6001C2780316C
:100BF80021002308F5002208F4002108F30020084A
:100C0800F2000030F6001C27803121002708F5008B
:100C18002608F4002508F3002408F2000530F60041
:100C28001C27803121002B08F5002A08F400290828
:100C3800F3002808F2000A30F6001C278031210052
:100C48002F08F5002E08F4002D08F3002C08F200F8
:100C58000F30F6001C2F6400FE30452780313A3AE9
:100C6800031DA72E1E30D82680317B08DD007A08A8
:100C7800DC007908DB007808DA002830D8268031D3
:100C88007B082100BB007A08BA007908B900780807
:100C9800B8002330D82680317B08D9007A08D800DC
:100CA8007908D7007808D600D60A0319D70A031995
:100CB800D80A0319D90A1430D82680317B082100B4
:100CC800B3007A08B2007908B1007808B00019308A
:100CD800D82680317B082100B7007A08B600790849
:100CE800B5007808B4000030D82680317B08210090
:100CF800A3007A08A2007908A1007808A0000530AE
:100D0800D82680317B082100A7007A08A600790838
:100D1800A5007808A4000A30D82680317B08210075
:100D2800AB007A08AA007908A9007808A8000F3053
:100D3800D8267B082100AF007A08AE007908AD00FC
:100D48007808AC0008003A30F000FE30C027803147
:100D58001E30572780311C27803128305727803193
:100D68001C2780312330572780311C2780311430CD
:100D7800572780311C2780311930572780311C278D
:100D880080310030572780311C27803105305727A4
:100D980080311C2780310A30572780311C27803149
:100DA8000F30572780311C2F2000A800FF30A400E7
:100DB800A500A600A7002808043E45278031353A3B
:100DC800031D022F04302000A9002608A7002508CB
:100DD800A6002408A500A40128082907FF3E4527E6
:100DE80080312000A40701300318A5070318A607BF
:100DF8000318A707A90303190B2FE92EFF30F200E8
:100E0800F300F400F50020002808F6001C27200055
:100E18002409A0002509A1002609A2002709A3008A
:100E2800FB002208FA002108F9002008F800080051
:100E3800FF30F206F306F406F5068B13F000760889
:100E4800043EC02780318B17F7018B137208F0001E
:100E580076087707C02780318B177308F20074086B
:100E6800F3007508F4000430F501F70A7702031C53
:100E7800292F8B133530F0007608043EC0278B17D6
:100E88000800F000640023009518462F70089100B0
:100E980092013F30950515140310151803140030FE
:100EA800093D13080800F201F301F401F501F60009
:100EB8000800BA00D930BB009330BC003C30BD00FC
:100EC8000034A000A101A035A10D200879078600F3
:100ED80021087A3D870008002108C3002008C200C5
:100EE8003C30C400080004302000C1007830A00065
:100EF800A101A201A3012100080005302000BA00C9
:100F0800F630BB009330BC003C30BD000800023016
:100F1800BA000430BB009430BC003C30BD000A3439
:100F2800A000A101A201A301210008007708A100E7
:100F38004408A20046080800F801F000F10143083F
:100F4800F3004208F20008007B08A200A301A235C2
:100F5800A30D220879070800F1004308F3004208AE
:100F6800F20008007108FA007008F900080041084A
:100F7800A0000A30F7000800F10023009518C12FDF
:100F8800710891009201700893003F309505031095
:100F98008B1B03148B13151555309600AA30960039
:100FA8009514151103188B1708000C30EB003C3012
:100FB8003922803104302000BA009430BB009330CD
:100FC800E7279E31362EBC003C30BD000A34813103
:100FD80034298131552981315F2981316129813154
:0A0FE8006F298131812981318D29A3
:10100000003400340034003400340034FE34FE3444
:10101000FE34003400340034003400340034003432
:10102000003400343B343B343B340034003400346F
:101030000034003480348034803480348034803410
:10104000803480348034003400340034013401347E
:1010500001340134013401340134013401340034E9
:10106000003400340034FC34FC34FC34FC34FC34F4
:10107000FC340034003400340034003400343F3495
:101080003F343F343F343F343F3400340034003485
:1010900000340034803480348034803480348034B0
:1010A000803480348034003400340034013401341E
:1010B0000134013401340134013401340134003489
:1010C00000347C34FE348234FE347C34C03430341A
:1010D0008C348234803400340034003400342034C2
:1010E0001834063401341F343F3420343F341F3465
:1010F000003400340034E034F034F0343034F03470
:10110000E034003400340034003400341C343E3405
:101110003F34373436343F343E343C343C3400348E
:10112000003400340034003400340E340E34003403
:10113000003400340034003400340034003400340F
:1011400000340034003400340034003400340034FF
:1011500000340034003400340034FC34FE34FE34F7
:1011600006340034003400340034003400340034D9
:1011700000341F343F343F34303400340034003402
:1011800000340034003400340634FE34FE34FC34C1
:1011900000340034003400340034003400340034AF
:1011A00030343F343F341F340034003400340034D2
:1011B0000034003400340034003404341C340E3461
:1011C0001C3404340034003400340034003400345F
:1011D000003400340034003400340034003400346F
:1011E000003400340034803480348034F034F034FF
:1011F00080348034803400340034003400340134CE
:10120000013401340F340F3401340134013400341B
:10121000003400340034003400340034003400342E
:10122000003400340034003400340034003400341E
:1012300000340034B03470340034003400340034EE
:1012400000340034003400340034003400340034FE
:1012500000340034003400340034003400340034EE
:1012600000340034003400340034003400340034DE
:1012700000340034FE34FC34F834F034E034C0344C
:10128000803400340034003400340034FF347F34C0
:101290003F341F340F340734033401340034003436
:1012A00000340034003400340034C034F8343E34A8
:1012B0000634003400340034003400340034303458
:1012C0003E341F3401340034003400340034003420
:1012D0000034003400340034FC34FE34FE34063470
:1012E000FE34FE34FC340034003400340034003466
:1012F0001F343F343F3430343F343F341F340034E4
:10130000003400340034003408340834FC34FC3435
:10131000FE3400340034003400340034003400342F
:10132000003400343F343F343F3400340034003460
:1013300000340034003400343C343E348634FE340F
:10134000FE347C3400340034003400340034003483
:1013500038343E343F3437343134303400340034A0
:1013600000340034003400341C341E34C634FE34DF
:10137000FE34BC3400340034003400340034003413
:101380001E343E3430343F343F341F340034003494
:101390000034003400340034E034FC341E34FE34B5
:1013A000FE34FE34003400340034003400340F3492
:1013B0000F340E340E343F343F343F340E34003497
:1013C0000034003400340034FE34FE34FE3466341D
:1013D000E634E634C63400340034003400340034DB
:1013E0001E343E343E3430343F343F341F340034F6
:1013F0000034003400340034FC34FE34FE346634EF
:10140000EE34EE34CC340034003400340034003494
:101410001F343F343F3430343F343F341F340034C2
:101420000034003400340034063406348634FE348C
:10143000FE343E34003400340034003400340034D0
:10144000003430343F343F34073400340034003447
:101450000034003400340034BC34FE34FE34C6346E
:10146000FE34FE34BC340034003400340034003424
:101470001F343F343F3430343F343F341F34003462
:101480000034003400340034FC34FE34FE340634BE
:10149000FE34FE34FC3400340034003400340034B4
:1014A00019343B343B3433343F343F341F3400343D
:1014B000003400340034003400340034C034C0340C
:1014C000003400340034003400340034003400347C
:1014D00000340034393439340034003400340034FA
:1014E000003400340034003400340034C034C034DC
:1014F000003400340034003400340034003400344C
:1015000000340034B1347134003400340034003419
:1015100000340034003400348034C034C034E0344B
:10152000603460343034003400340034003400342B
:1015300000340134013403340334033406340034FA
:10154000003400340034003460346034603460347B
:1015500060346034603400340034003400340034CB
:1015600003340334033403340334033403340034C6
:101570000034003400340034303460346034E034FB
:10158000C034C034803400340034003400340034BB
:10159000063403340334033401340134003400349A
:1015A0000034003400349C349E349E340634FE34BF
:1015B000FC34F834003400340034003400343B345C
:1015C0003B343B34033403340334013400340034FB
:1015D0000034E0341834CC34E4343234123412346D
:1015E000E234F234743408340034073418343734B5
:1015F0002F34483448344C344F346F342834363424
:101600000034003400340034F034FE340E34FE3440
:10161000F0340034003400340034003400343E34FC
:101620003F340D340C340D343F343E340034003438
:10163000003400340034FE34FE34FE34C634FE344C
:10164000BE34BC34003400340034003400343F3441
:101650003F343F3430343F343F341F34003400349F
:10166000003400340034FC34FE34FE3406343E349E
:101670003E343C34003400340034003400341F3431
:101680003F343F3430343F341F340F34003400349F
:10169000003400340034FE34FE34FE340634FE34AC
:1016A000FE34FC34003400340034003400343F3461
:1016B0003F343F3430343F343F341F34003400343F
:1016C00000340034003400340034FE34FE34FE3480
:1016D000C634C634003400340034003400340034DE
:1016E00000343F343F343F3430343034303400340D
:1016F00000340034003400340034FE34FE34FE3450
:10170000C634C634003400340034003400340034AD
:1017100000343F343F343F3400340034003400346C
:10172000003400340034FC34FE34FE340634BE345D
:10173000BC34B834003400340034003400341F3476
:101740003F343F3430341F343F343F3400340034AE
:10175000003400340034FE34FE34FE34C034FE3431
:10176000FE34FE34003400340034003400343F349E
:101770003F343F3400343F343F343F34003400348E
:10178000003400340034003400340034FE34FE34BD
:10179000FE340034003400340034003400340034AB
:1017A000003400343F343F343F34003400340034DC
:1017B00000340034003400340034FE34FE34FE348F
:1017C0000034003400340034003400340034003479
:1017D00030343F343F341F3400340034003400349C
:1017E0000034003400340034FE34FE34FE34E0347F
:1017F000F834FE341E34063400340034003400342F
:101800003F343F343F3403340F343F343C343034BE
:1018100000340034003400340034FE34FE34FE342E
:101820000034003400340034003400340034003418
:1018300000343F343F343F343034303400340034EB
:10184000003400340034FE34FE34FE347E34E034A0
:101850001E34FE34FE34FE340034003400343F3491
:101860003F343F3400343F3400343F343F343F345E
:101870000034003400340034FE34FE34FE34F034DE
:101880008034FE34FE34003400340034003400343C
:101890003F343F34003407343F343F343F34003466
:1018A000003400340034F834FE34FE340634FE34A0
:1018B000FE34F834003400340034003400340F3483
:1018C0003F343F3430343F343F341F34003400342D
:1018D0000034003400340034FE34FE34FE348634E8
:1018E000FE34FC340034003400340034003400345E
:1018F0003F343F343F340134013400340034003489
:10190000003400340034F834FE34FE340634FE343F
:10191000FC34F834003400340034003400341F3414
:101920003F343F3470347F345F345F3400340034EC
:101930000034003400340034FE34FE34FE34C63447
:10194000FE34FE347C34003400340034003400347F
:101950003F343F343F3400343F343F343F3400346D
:1019600000340034003400347C34FE34FE34C63499
:101970009E341C340034003400340034003400340D
:101980001E343E3430343F343F341F34003400348E
:10199000003400340034003406340634FE34FE349F
:1019A000FE3406340634003400340034003400348D
:1019B000003400343F343F343F34003400340034CA
:1019C000003400340034FE34FE34FE340034FE347F
:1019D000FE34FE34003400340034003400341F344C
:1019E0001F343F3430343F343F341F34003400342C
:1019F0000034003400340E34FE34FE34F03400344D
:101A0000F034FE34FE340E3400340034003400343C
:101A100003343F343F3438343F343F3403340034EC
:101A20000E34FE34FE34E0340034FE343E34FE34F2
:101A30000034F034FE34FE34003403343F343F3499
:101A400038340F3400340F3438343F343F340334E7
:101A500000340034003400340E34FE34FE34C0341C
:101A6000FE34FE340E3400340034003400340034CC
:101A70003C343F343F3400343F343F343C34003452
:101A800000340034003406347E34FE348034FE34B6
:101A90007E34063400340034003400340034003422
:101AA00000343F343F343F340034003400340034D9
:101AB000003400340034003406340634C634FE34B6
:101AC0007E340E34003400340034003400340034EA
:101AD00038343E343F343134303430340034003420
:101AE000003400340034003400340034FE34FE345A
:101AF000FE34063400340034003400340034003442
:101B0000003400343F343F343F3430340034003448
:101B1000003400340034003406343E34F834C03429
:101B20000034003400340034003400340034003415
:101B30000034003401341F343E3430340034003477
:101B4000003400340034003400340634FE34FE34F3
:101B5000FE340034003400340034003400340034E7
:101B6000003430343F343F343F34003400340034E8
:101B700000340034003400348034F0347C341E34BB
:101B80007C34F034803400340034003400340034C9
:101B900000340034003400340034003400340034A5
:101BA0000034003400340034003400340034003495
:101BB0000034003400340034003400348034803485
:101BC00080348034803480348034803480340034F5
:101BD000003400340034003401340334033402345C
:101BE0000034003400340034003400340034003455
:101BF0000034003400340034003400340034003445
:101C0000003400340034E034F034F0343034F03454
:101C1000F034E034003400340034003400341E3436
:101C20003E343F3413343F343F343F3400340034C7
:101C3000003400340034FE34FE34FE342034F034FA
:101C4000F034E034003400340034003400343F34E5
:101C50003F343F3410343F343F341F3400340034B9
:101C6000003400340034E034F034F0343034F034F4
:101C7000F034E034003400340034003400341F34D5
:101C80003F343F3430343E341E340E34003400349C
:101C9000003400340034E034F034F0342034FE34C6
:101CA000FE34FE34003400340034003400341F3479
:101CB0003F343F3410343F343F343F340034003439
:101CC000003400340034E034F034F034B034F03414
:101CD000F034E034003400340034003400341F3475
:101CE0003F343F3431343D343D341D34003400340E
:101CF00000340034003400340034FC34FE34F63454
:101D000036340034003400340034003400340034FD
:101D100000343F343F343F34003400340034003466
:101D2000003400340034F034F034F0342034F03433
:101D3000F034F034003400340034003400343334F0
:101D40007734773462347F347F343F340034003466
:101D5000003400340034FE34FE34FE342034F034D9
:101D6000F034E034003400340034003400343F34C4
:101D70003F343F3400343F343F343F340034003488
:101D800000340034003400340034F634F634F634D1
:101D900000340034003400340034003400340034A3
:101DA00000343F343F343F340034003400340034D6
:101DB00000340034003400340034F634F634F634A1
:101DC0000034003400340034003400340034003473
:101DD00060347F347F343F340034003400340034C6
:101DE000003400340034FE34FE34FE348034F034E9
:101DF000F0341034003400340034003400343F3404
:101E00003F343F3401343F343F3430340034003405
:101E100000340034003400340034FE34FE34FE3428
:101E20000034003400340034003400340034003412
:101E300000343F343F343F34003400340034003445
:101E40000034F034F034F0342034F034F034E03442
:101E50002034F034F034E03400343F343F343F3445
:101E600000343F343F343F3400343F343F343F3458
:101E7000003400340034F034F034F0342034F034E2
:101E8000F034E034003400340034003400343F34A3
:101E90003F343F3400343F343F343F340034003467
:101EA000003400340034E034F034F0343034F034B2
:101EB000F034E034003400340034003400341F3493
:101EC0003F343F3430343F343F341F340034003427
:101ED000003400340034F034F034F0342034F03482
:101EE000F034E034003400340034003400347F3403
:101EF0007F347F3410343F343F341F340034003497
:101F0000003400340034E034F034F0342034F03461
:101F1000F034F034003400340034003400341F3422
:101F20003F343F3410347F347F347F340034003406
:101F30000034003400340034F034F034F0346034D1
:101F40007034003400340034003400340034003481
:101F50003F343F343F340034003400340034003424
:101F6000003400340034E034F034F0343034703471
:101F700070346034003400340034003400341834D9
:101F800039343B3433343F343E341E34003400346F
:101F90000034003400340034FC34FC34FC3430347D
:101FA0000034003400340034003400340034003491
:101FB0003F343F343F343034003400340034003494
:101FC000003400340034F034F034F0340034F034B1
:101FD000F034F034003400340034003400341F3462
:101FE0003F343F3410343F343F343F340034003406
:101FF0000034003400347034F034F0340034F03401
:10200000F0347034003400340034003400340034D0
:102010000F343F3430343F340F3400340034003454
:102020000034F034F034F0340034F034F034F03470
:102030000034F034F034F034003400343F343F34B2
:1020400038343F3400343F3438343F343F34003484
:102050000034003400341034F034F0340034F03400
:10206000F0341034003400340034003400342034B0
:102070003C343F3403343F343C34203400340034A7
:10208000003400343034F034F03480340034F03430
:10209000F03430340034003400340034003463341D
:1020A0007F347F3478347F341F340034003400347C
:1020B00000340034003400343034F034F034F03480
:1020C0000034003400340034003400340034003470
:1020D0003E343F343F343134003400340034003473
:1020E0000034C034F034F834F834FC34FC343C347C
:1020F0003C34FC34FC34F834F834F034C03400346C
:10210000003400340034FF34FF34FF34FF34FF3434
:10211000FF3400340034FF34FF34FF34FF34FF3425
:10212000FF3400340034003400347F34FF34FF3493
:10213000FF34FF34FF3480348034FF34FF34FF3405
:10214000FF34FF347F340034003400340034003472
:1021500001340334033407340734073407340734B5
:1021600007340334033401340034003400340034C1
:10217000003400340034C034C034E034E034F0348F
:10218000F034F834FC34FC34FC34003400340034D3
:10219000003400340034003400340134013401349C
:1021A0000334FF34FF34FF34FF34FF34FF34003492
:1021B000003400340034003400340034003400347F
:1021C000003400340034FF34FF34FF34FF34FF3474
:1021D000FF34003400340034003400340034003460
:1021E000003400340034003400340734073407343A
:1021F000073407340734003400340034003400342A
:1022000000340034C034F034F834FC34FC343C3452
:102210003C34FC34FC34F834F834F034C03400344A
:1022200000340034003400340734073407340734F2
:102230000734E034F834FF34FF34FF34FF343F34E4
:102240000F34003400340034003400340034C0341F
:10225000F034FC34FF34FF34FF34BF348F34873420
:1022600081348034003400340034003400340034CD
:102270000734073407340734073407340734073486
:102280000734073407340734003400340034003492
:102290000034F034F834F834FC34FC34FC343C348E
:1022A0003C34FC34FC34FC34F834F034E034003496
:1022B0000034003400340134013401340134013479
:1022C00079347834F834FF34FF34FF34EF34EF34AA
:1022D000C7340034003400340034FE34FE34FE349D
:1022E000FE34FE34FE3480348034FF34FF34FF3457
:1022F000FF34FF347F3400340034003400340034C1
:102300000134033403340734073407340734073403
:10231000073403340334013400340034003400340F
:102320000034003400348034F034FC34FC34FC34A9
:10233000FC34FC34FC34FC34FC3400340034003411
:10234000003400340034E034FC34FF347F3407348C
:102350000034FF34FF34FF34FF34FF34FF340034E3
:1023600000340034003400347F347F347F347F34D1
:102370007E347E347E34FF34FF34FF34FF34FF3448
:10238000FF347E347E3400340034003400340034B2
:102390000034003400340034003407340734073488
:1023A0000734073407340034003400340034003478
:1023B0000034FC34FC34FC34FC34FC34FC343C3459
:1023C0003C343C343C343C343C343C343C340034C9
:1023D0000034003400347F347F347F347F347F34E2
:1023E0007F341C341E34FE34FE34FE34FE34FC34A0
:1023F000F03400340034003400347C34FC34FC34D9
:10240000FC34FC34FC3480348034FF34FF34FF343B
:10241000FF34FF34FF34003400340034003400341F
:1024200001340334033407340734073407340734E2
:1024300007340334033401340034003400340034EE
:102440000034C034F034F834F834FC34FC343C3418
:102450003C34FC34FC34F834F834F034C034003408
:10246000003400340034FF34FF34FF34FF34FF34D1
:10247000FF3470347834F934F934F934F934F13400
:10248000E13400340034003400347F34FF34FF344E
:10249000FF34FF34FF3480348034FF34FF34FF34A2
:1024A000FF34FF34FF34003400340034003400348F
:1024B0000134033403340734073407340734073452
:1024C000073403340334013400340034003400345E
:1024D000003400343C343C343C343C343C343C34F4
:1024E000FC34FC34FC34FC34FC34FC340034003464
:1024F000003400340034003400340034003400343C
:102500008034F834FF34FF34FF34FF343F34013477
:10251000003400340034003400340034003400341B
:102520000034F034FF34FF34FF34FF34FF34073419
:1025300000340034003400340034003400340034FB
:1025400000340034063407340734073407340734C2
:1025500000340034003400340034003400340034DB
:102560000034E034F034F834F834FC34FC343C34D7
:102570003C34FC34FC34FC34F834F034E0340034C3
:102580000034003400348734EF34FF34FF34FF3438
:10259000FF3478347834FF34FF34FF34EF34EF34D1
:1025A000C73400340034003400347F34FF34FF3447
:1025B000FF34FF34FF3480348034FF34FF34FF3481
:1025C000FF34FF34FF34003400340034003400346E
:1025D0000134033403340734073407340734073431
:1025E000073403340334013400340034003400343D
:1025F0000034E034F034F834F834FC34FC343C3447
:102600003C34FC34FC34F834F834F034C034003456
:10261000003400340034FF34FF34FF34FF34FF341F
:10262000FF34C034C034FF34FF34FF34FF34FF3490
:10263000FF3400340034003400347034F134F334A7
:10264000F334F334F33483348134FF34FF34FF3410
:10265000FF34FF347F34003400340034003400345D
:1026600001340334033407340734073407340734A0
:1026700007340334033401340034003400340034AC
:1026800000340034003400340034003400340034AA
:10269000003400340034003400340034003400349A
:1026A000003400340034003400340034003480340A
:1026B00080348034803480348034803480340034FA
:1026C000003400340034003400340034003400346A
:1026D0000034073407340734073407340734073429
:1026E0000734003400340034003400340034003443
:1026F000003400340034003400340034003400343A
:102700000034003400340034003400340034003429
:1027100052346534733465347434203454344F3453
:10272000203431343F3400345234653473346534EA
:102730007434203454344F34203432343F34003431
:1027400052346534733465347434203474347234E0
:10275000693470343F3400344634753465346C3435
:10276000203463346F346E3473347434003446343C
:10277000753465346C342034743461346E346B34A5
:1027800000344D3469346E34693420347434723416
:1027900069347034003442346134743474346534D0
:1027A00072347934003453347034653465346434AD
:1027B0000034743469346D3465340034463475340F
:1027C00065346C34003454347234693470340034F9
:1027D000313430343034003454344F3431340034F4
:1027E00054344F34323400346C342F346834003471
:1027F0004F3464346F3400344C34743472340034E5
:102800006C347434723400346B346D3400345634A8
:02281000003492
:102AE0006400013080010131FE020030FF3B7F08AD
:102AF0007E0403190034712D2100C40A0319C50A8C
:102B00002000DE0A0319DF0A01305F029830031942
:102B10005E02031C0800DA0A0319DB0A0319DC0A47
:102B20000319DD0A2100B00A0319B10A0319B20A18
:102B30000319B30AA00A0319A10A0319A20A031967
:102B4000A30AA80A0319A90A0319AA0A0319AB0AB6
:102B50002000DE01DF0108000B11B03020009500DD
:102B60002100C00A0319C10A01304102873003194C
:102B70004002031CFA2D1E30C001C1012000E80AEA
:102B80006802031CFA2D00306E02023003196D0238
:102B90000318D12D00306302023003196202031CB6
:102BA000E02D2100B80A0319B90A0319BA0A03195A
:102BB000BB0AB40A0319B50A0319B60A0319B70AFE
:102BC000003020006E02023003196D02031CF72D45
:102BD0002100A40A0319A50A0319A60A0319A70AC2
:102BE000AC0A0319AD0A0319AE0A0319AF0A200093
:102BF000E801EF142100BC0A0319BD0A02303D02AE
:102C0000343003193C02031C132E43082000EE004D
:102C1000210042082000ED00EE36ED0C2100C2013B
:102C2000C301BC01BD01BE0A0319BF0A02303F0245
:102C3000AB3003193E02031C0800BE01BF0145086A
:102C40002000E300210044082000E2002100C4012C
:102C5000C501080006302000EB00CB30BA01BB00F4
:102C60009330BC003C30BD0002309E313626963198
:102C70000230C1006508C8006408C700C836C70C28
:102C8000C836C70C4708C2004808C3003C30C4001F
:102C90001030BE2603302000BA000730BB0094304D
:102CA000BC003C30BD0064309E31362E0330200025
:102CB000EB000530BA00E330BB0093309F316D2745
:102CC00096319E3136269631D330BA01BA0ABB000E
:102CD00093309F316D2796319E31362696316308A9
:102CE000C3006208C2003C30C336C20CC101C4003C
:102CF0000330C50040308531052596310430200071
:102D0000C1005B08C3005A08C2003C30C400303028
:102D1000BE2EF9007708013EF4007808F500790826
:102D2000D12796317808F1000030A5269631780831
:102D3000F1006330A52696317808F1006330A526AE
:102D400096317808F1000030A52EF300833160231E
:102D500096317108F200F2357208FE399B31DB239F
:102D60009631003A031D080040309B31DB23963139
:102D700073089B31DB2396318331652BC6004308F2
:102D8000803AC50083304502031DC82EE830420258
:102D9000031CE82E20004308803AC500A7304502F6
:102DA000031DD42E103042020318E82E20004108E3
:102DB000A000E830F0000330F1004308F3004208BF
:102DC000F2002F2796317008FB2799315C2196314C
:102DD0002000C31FF82E4108A0000B30FB279931BB
:102DE0005C2196312000C209C309C20A0319C30A33
:102DF0004108A0000A30F8006430E72796312F27F9
:102E00009F319E2796316F279631EF27123E9931D9
:102E10005C219631F5279631E72796312F279F3190
:102E20009E2796316F279631EF27243E99315C21FA
:102E3000963120004108F7004408F8004608343E67
:102E4000A8279631F5279631F9014308FB0042087F
:102E5000FA006F279631EF273D3E99315C29F50145
:102E6000F11F392FF009F109F00A0319F10AF501F0
:102E7000F50AF31F422FF209F309F20A0319F30AC4
:102E80000130F506F601F701710870040319622F8D
:102E9000F401F40AF11B4F2FF035F10D492FF635EF
:102EA000F70D71087302031D572F70087202031C7F
:102EB0005E2F7008F2027108F33B7614F136F00CC5
:102EC000F40B4F2F750803196A2FF609F709F60A54
:102ED0000319F70A7708F1007608F0000800FD01F1
:102EE000FB1F792FFA09FB09FA0A0319FB0AFD01F6
:102EF000FD0AF91F802FF809F909F80A0319F90AE0
:102F00007908780403199B2FFC01FC0AF91B8B2F0D
:102F1000F835F90D852F79087B02031D912F78086C
:102F20007A02031C972F7808FA027908FB3BF936DE
:102F3000F80CFC0B8B2F7D080319A32FFA09FB0952
:102F4000FA0A0319FB0A7B08F9007A08F80008005E
:102F5000A6007708033EF4007808F5002608D1277C
:102F600096312000A7012708203E86000230870105
:102F70008101A70A2702031CB32F0230A7002708EC
:102F8000203E86001F30870181000730A70A2702F4
:102F9000031CBF2F7808F1000630F20020309B316F
:102FA000E82BF6007508F10076080F399B31C6232F
:102FB00096317508F100760E0F3910389B31C62313
:102FC0007508F10074080F39B03A9B31C62BF9012E
:102FD000F000F1014308F3004208F200080078080D
:102FE000A1004408A2004608080020004108A000F3
:102FF0000A30F8000800A1004408A20046080800B2
:1032B800BD001230BE000B30BF012102031C66297D
:1032C8000A30A1002008AF279731D1279931200073
:1032D800C0013E08400203187B2929305B27993139
:1032E800FB269931162399319C2699316D2922089C
:1032F800F1003E08F2002930E82399312000200827
:10330800013EAF279731D127993120003F08123E5F
:10331800C0003E08123EEF26993103189F29293034
:1033280020005B279931EE3EFB269931162399310F
:103338009C2699318D2971279931E82399312000EC
:103348002008023EAF279731D127993120003F0846
:10335800243EC0003E08243EEF2699310318C029B8
:10336800293020005B279931DC3EFB269931162352
:1033780099319C269931AE2971279931E8239931E1
:1033880020002008033EAF279731D127993120002C
:103398003F08363EC0003E08363EEF2699310318F6
:1033A800E129293020005B279931CA3EFB26993153
:1033B800162399319C269931CF2971279931E82B09
:1033C80002302000EB0077279931362699310230F8
:1033D800C1006E08C3006D08BA279631BE26993120
:1033E80003302000BA00F430BB009330C62799316F
:1033F800362699310630BA269931B1269931F72502
:103408009931C22699310330BE000030D124993158
:103418009927993153269931063086269931F7250F
:103428009931E1269931CA279931042799312430F5
:10343800BE01BE0AD124993124279931BF2299317E
:1034480006302000BA000A304E279931F725993105
:10345800C22699310330BE004A30D1249931063052
:1034680020002C279931362E07302000EB0032300F
:10347800EA269931B1269931F72599312308CA00EE
:103488002208C9002108C8002008C700122799315E
:103498004A08A7004908A6004808A5004708A4004C
:1034A800F72599312108CC002008CB00B730BA01A4
:1034B800BB009330BC003C30BD0002303626993149
:1034C8000230C1006108C3006008BA279631BE26E1
:1034D800993103302000BA000030BB009430C62771
:1034E8009931362699310630BA269931B126993163
:1034F800F7259931C22699310330BE000030D12416
:103508009931992799315326993106308626993170
:10351800F7259931E1269931CA279931042799313C
:103528002430BE01BE0AD124993124279931BF2203
:10353800993106302000BA004B08A0004C08A100C1
:10354800A201A3016008F0006108F1000A30A32776
:103558008331D42399311B279931F7259931C22614
:1035680099310330BE004A30D12499310630200009
:103578002C279931362EB7002130B80021020318C4
:10358800C72A2D30A1007F302102031CCD2A2D30FF
:10359800A1002208F40037082B23993120002208C3
:1035A800F4002008382399312000B901B90A3908F4
:1035B800FF3E4127993116239931C926993116239F
:1035C8009931882799310D30B90A3902031CDB2A51
:1035D8002208C2279931E823993120002208F400F3
:1035E80037082B23993120002208F4002008013ED7
:1035F800382399310D302000B9003908F33E4127AE
:10360800993116239931C92699311623993188277A
:1036180099311830B90A3902031C012B2208C22734
:103628009931E82BF401F501701C1E2B7208F40780
:103638007308F53DF235F30DF136F00C710870049E
:10364800031D182B7508F1007408F0000800F50038
:103658007408F10075080F39C62399317408F10010
:10366800750E0F391038C62BF5007408F10075086F
:103678000F39B03AC62BF6007608F100AE30C623F3
:1036880099317608F100D530C62399317608F100D2
:103698008030C62399317608F100A830C6239931C5
:1036A8007608F1007508C62399317608F100D33001
:1036B800C62399317608F1000030C623993176087F
:1036C800F1000030C62399317608F1001030C62386
:1036D80099317608F1004030C62399317608F10017
:1036E800B030C62399317608F1008D30C623993160
:1036F8007608F1002030C62399317608F1000030B1
:10370800C62399317608F100A130C623993176088D
:10371800F100C830C62399317608F100DA30C623A3
:1037280099317608F1001230C62399317608F100F4
:103738001030C62399317608F100CF30C62399316D
:103748007608F100D930C62399317608F1001F3088
:10375800C62399317608F100DB30C6239931760803
:10376800F1004030C62399317608F100A430C62311
:1037780099317608F100A630C62399317608F10010
:10378800AF30C62BF3008331602399317108F20002
:10379800F2357208FE39DB239931003A031D08001F
:1037A8000030DB2399317308DB238331652BF0006C
:1037B800700824009100951BFF341418E12B732620
:1037C8009931161BFE340034F5008331602399319A
:1037D8007108F300F3357308FE39DB239931003A99
:1037E800031D08004030DB239931F401720874028C
:1037F8000318082C74087507F30086008701010870
:10380800DB239931F40AFA2B8331652B043020002D
:10381800EB00E330BA01BB0093306D2799313626AF
:1038280099310A30BA014E279931F7259931C226C4
:1038380099310430BE005430D12402302000873141
:103848005D27993136260230BA00783087319427BF
:1038580099313B082000A70021003A082000A60063
:10386800210039082000A500210038082000A40004
:10387800F7259931C22699310230BE005430D1243F
:10388800993102302000BA007830AD00AE01AF01A6
:10389800B00121003B082000B40021003A082000B4
:1038A800B300210039082000B200210038082000A8
:1038B800B100CA279931042799310230BE006C3013
:1038C800D1240230F7003C30F8006A30963189265E
:1038D800993104302000BA00DE30BB0093306D27E8
:1038E8009931362699310430BA269931B126993161
:1038F800F7259931C22699310330BE005430D124BE
:1039080099310430F7003C30F8007430532699316F
:10391800043086269931F7259931E1269931CA274D
:103928009931042799317830BE01BE0AD1249931E2
:1039380006302000BA00D330BB0093306D27993190
:1039480036260630BA0021003B082000A3002100DB
:103958003A082000A200210039082000A100210017
:1039680038082000A0005D08F3005C08F2005B083E
:10397800F1005A08F0000C30F400F501F601F701E7
:103988008331D42399311B279931F7259931C226E0
:1039980099310430BE005430D12CBF003E08013AA2
:1039A8000319362D033A0319252D013A0319112D50
:1039B800073A0319FA2C013A0319E32C422D3A0865
:1039C800A0000A30F8001030F901F0002730B427C1
:1039D80097312F2799319E2797316F2799310B27D8
:1039E8009931BF2299310B302000BF073A08A00057
:1039F8000A30F800E830F901F0000330B4279731B5
:103A08002F2799319E2797316F2799310B279931A5
:103A1800BF2299310B302000BF073A08A0000A30B6
:103A2800F8006430912797312F2799319E279731D5
:103A38006F2799310B279931BF2299310B3020001C
:103A4800BF07AA279931912797312F2799319E27A8
:103A580097316F2799310B279931BF2299310B3054
:103A68002000BF07AA27F9013C08FB003B08FA0021
:103A780097316F2799310B279931BF2A0800200009
:103A8800EB01EB0A6208A0006308A100A201A301F0
:103A98006D08F0006E08F100C830A3278331D423E5
:103AA80099311B279931F72599312108CC00200835
:103AB800CB0003304C02E83003194B02031C682D7D
:103AC800E730CB000330CC0077279931362699317F
:103AD8000230C1004C08C3004B08BA279631BE26F5
:103AE800993102302000BA00FC30BB009330BE2769
:103AF8009931362699310430BA00E830BB0093304A
:103B0800BE279931362699310630BA269931B12621
:103B18009931F7259931C22699310330BE0000301A
:103B2800D12499319927993153269931063086261F
:103B38009931F7259931E1269931CA279931042716
:103B480099312430BE01BE0AD124993124279931F4
:103B5800BF22993132302000EA269931B1269931B5
:103B6800F725993162279931122799317F279931A1
:103B7800F7259931C22699310230BE005130D1243F
:103B880099310630F7003C30F800673053269931F8
:103B980005302000EA269931B1269931F725993167
:103BA800622799310A30AD00AE01AF01B00112278A
:103BB80099317F279931F7259931E1269931CA271B
:103BC8009931042799316A30BE01BE0AD12499314E
:103BD80006302000BA00E130BB009330BC003C3016
:103BE800BD007630362EA801A901AA01AB01230831
:103BF80022042104200403192D2EAC01AC0AA31BB6
:103C08000A2EA035A10DA20DA30D022EA835A90DCF
:103C1800AA0DAB0D23082702031D1C2E220826021D
:103C2800031D1C2E21082502031D1C2E200824021A
:103C3800031C272E2008A4022108A53B2208A63B26
:103C48002308A73B2814A336A20CA10CA00CAC0B8C
:103C58000A2E2B08A3002A08A2002908A100280878
:103C6800A0000800C000C10134279931003A0319A7
:103C7800080020304102031808003A08A000342741
:103C88009931A1003D08A2000A30F00041087A26C7
:103C980099314007BF2299312000C10A382EF90016
:103CA8007708013EF4007808F50079089731D127A4
:103CB80099317808F10000309631A52699317808B5
:103CC800F10058309631A52699317808F10038303E
:103CD8009631A5267808F10000309631A52E1608F1
:103CE8001F39031D732E141D0800732EF200F101F5
:103CF80070087218F107F035F236F208031D7C2EB1
:103D0800710808002000BA000A30AD001330AE0177
:103D1800AF01B001A301A201A1008830A000590899
:103D2800A7005808A6005708A5005608A4000800D0
:103D38007030A5009030A60070082507A70071080C
:103D4800263DA80040082707840028080318280AE9
:103D5800850000088100C00A08005908A700580813
:103D6800A6005708A5005608A4000800BA00C330EA
:103D7800A301A201A1005030A00008002108BC0046
:103D88002008BB003C30BD0008000030A50088308A
:103D9800A60070082507A7007108263DA80023087B
:103DA8002707A9002408283DAA003808F000E830B1
:103DB800F101F200FF30F30008002308B4002208E4
:103DC800B3002108B2002008B1000800A000A1013A
:103DD800A201A3010800A300003003180130A400C9
:103DE800803A803C031D0800230840020800860032
:103DF80087012108F0004830F101F200F3010800C2
:103E08002E08BC002D08BB003C30BD000800780817
:103E1800303EA1003D08A2003F0808005D08A3004D
:103E28005C08A2005B08A1005A08A00008007308FB
:103E3800A7007208A6007108A5007008A400080071
:103E480006302000A0006C30A1003C30A2002E34C7
:103E5800BA000430BB009430BC003C30BD006A346A
:103E68003C08BF003B08BE0041083E0784003F08ED
:103E780003183F0A8500000808002B3E86008701CA
:103E88003908A300A4012108F0001830F101F2005C
:103E9800F3010800A000A101A201A3015D08A70089
:103EA8005C08A6005B08A5005A08A4000800A30047
:103EB8003F08A30240082307A40008002308CA00FB
:103EC8002208C9002108C8002008C7000630BA0027
:103ED8000800BC003C30BD00003420002208F1007E
:103EE8003E08F2002934AC30BA01BB009330BC0064
:103EF8003C30BD0002344A08A7004908A60048081B
:103F0800A5004708A40008002908700784002A08AB
:103F1800713D8500000881000800F901F000F101F9
:103F28003C08F3003B08F20008000630F7003C307C
:103F3800F80021347108FB007008FA000800F2014B
:103F4800F301F400F501F601F70108003A08A000B2
:103F58000A30F8000800F4002208F5003D080800BF
:103F6800F1003C08F3003B08F2000800C2003C30B6
:103F7800C4001034BC003C30BD006234F1000C3089
:103F8800F2002B34BC003C30BD005F3430082F04F5
:103F98002E042D040319F72FFC01FC0AB01BD92F9E
:103FA800AD35AE0DAF0DB00DD12F30083402031D65
:103FB800E72F2F083302031DE72F2E083202031DB7
:103FC800E72F2D083102031CF12F2D08B1022E080E
:103FD800B23B2F08B33B3008B43BB036AF0CAE0C45
:103FE800AD0CFC0BD92F3408B0003308AF003208F1
:083FF800AE003108AD00080025
:020000040001F9
:04000E00FCF9FFDF1B
:10E000000000000000000000000000000000000010
:10E010000000000000000000000000000000000000
:10E0200000000000000000000000000000000000F0
:10E0300000000000000000000000000000000000E0
:10E0400000000000000000000000000000000000D0
:0AE0500000000000000000000000C6
:00000001FF
